:100000000C942A000C9447000C9447000C94470071
:100010000C9419060C94F0050C9447000C94C70539
:100020000C9447000C949E050C9475050C944C059B
:100030000C9447000C9447000C9447000C94470024
:100040000C9447000C9447000C9447000C94470014
:100050000C94470011241FBECFE5D8E0DEBFCDBF12
:1000600010E0A0E6B0E0EAEEF1E102C005900D92EA
:10007000A237B107D9F710E0A2E7B0E001C01D92A6
:10008000A937B107E1F70E94E8000C94F3080C943B
:10009000000083E063E040E00E941902089583E0DD
:1000A00063E041E00E941902089583E063E041E0CB
:1000B0000E94A50183E063E040E00E9419020895D8
:1000C000809172008F5F8093720008951F93DF9379
:1000D000CF93CDB7DEB727970FB6F894DEBF0FBE2C
:1000E000CDBF182FDE011196E0E6F0E087E0019029
:1000F0000D928150E1F780E690E061E00E944507B3
:10010000CE0101960E944206809172008117E0F3B1
:100110001092720081E00E940A0727960FB6F894A9
:10012000DEBF0FBECDBFCF91DF911F910895CF925B
:10013000DF92EF92FF921F93DF93CF930F92CDB791
:10014000DEB781E1E82E83E0F82E6E010894C11C31
:10015000D11C0E946408182FC701B6010E946807CD
:100160008981181711F080E00CC081E10E946008BD
:100170000894E11CF11C86E1E81683E0F80649F7D3
:1001800081E00F90CF91DF911F91FF90EF90DF9072
:10019000CF9008950F931F93CF93DF93C1E1D3E0E6
:1001A00000E21EE481E10E9460080E946408682F5A
:1001B000CE010E94AD07C8010197F1F7219683E0B7
:1001C000C631D80779F7DF91CF911F910F9108952C
:1001D000DF93CF93CDB7DEB72B970FB6F894DEBF82
:1001E0000FBECDBF8FB780688FBFDE011496EAE6E1
:1001F000F0E088E001900D928150E1F7CE01049685
:100200000E941F08DE011196E7E6F0E083E001900E
:100210000D928150E1F7CE0101960E94DE070E9407
:1002200055000E944E070E9490010E9446050E94C0
:1002300064088C3CE9F18D3DD1F70E9464088F3F42
:1002400071F50E949700882311F18AEA0E946008E4
:1002500081E064E60E946A018FE00E94660004C0AB
:1002600080E060E00E946A010E9441058823C1F796
:1002700082E00E94600882E064E60E946A018FE0EA
:100280000E94660080E060E00E946A01DACF8BEB9A
:100290000E9460080E946408883699F613C08E3E5A
:1002A00031F60E949700882331F08AEA0E946008A4
:1002B0000E94CA00BCCF8BEB0E9460080E946408B9
:1002C000883679F70E944F008CE30E9466000E94F6
:1002D0004900ADCF1F93182F653608F064E6862FCE
:1002E0000E945A07113019F0123071F404C083E0F3
:1002F00066E041E00CC083E066E040E00E94190245
:1003000083E067E041E008C083E066E040E00E94EF
:10031000190283E067E040E00E9419021F910895EE
:1003200083E066E041E00E94A50183E067E041E0F0
:100330000E94A50183E066E040E00E94190283E08C
:1003400067E040E00E9419020895683008F070C02C
:10035000843008F06DC0813009F1813030F0823096
:10036000B1F1833009F064C04BC0413059F42AB375
:1003700081E090E002C0880F991F6A95E2F7282B70
:100380002ABB08952AB381E090E002C0880F991F2C
:100390006A95E2F7809582238ABB0895413059F42B
:1003A00027B381E090E002C0880F991F6A95E2F7B9
:1003B000282B27BB089527B381E090E002C0880F67
:1003C000991F6A95E2F78095822387BB0895413093
:1003D00059F424B381E090E002C0880F991F6A9518
:1003E000E2F7282B24BB089524B381E090E002C0FB
:1003F000880F991F6A95E2F78095822384BB089540
:10040000413059F421B381E090E002C0880F991F78
:100410006A95E2F7282B21BB089521B381E090E093
:1004200002C0880F991F6A95E2F78095822381BBED
:100430000895683008F070C0843008F06DC08130D5
:1004400009F1813030F08230B1F1833009F064C0BD
:100450004BC0442361F42BB381E090E002C0880FCD
:10046000991F6A95E2F7809582238BBB08952BB381
:1004700081E090E002C0880F991F6A95E2F7282B6F
:100480002BBB0895442361F428B381E090E002C0BF
:10049000880F991F6A95E2F78095822388BB08959B
:1004A00028B381E090E002C0880F991F6A95E2F7B7
:1004B000282B28BB0895442361F425B381E090E004
:1004C00002C0880F991F6A95E2F78095822385BB49
:1004D000089525B381E090E002C0880F991F6A95C6
:1004E000E2F7282B25BB0895442361F422B381E071
:1004F00090E002C0880F991F6A95E2F780958223E9
:1005000082BB089522B381E090E002C0880F991F5A
:100510006A95E2F7282B22BB08956830D0F4843026
:10052000C0F4813049F0813028F0823039F08330D6
:1005300081F406C089B305C086B303C083B301C08C
:1005400080B390E002C0959587956A95E2F7817037
:10055000089580E00895843080F4813049F081303E
:1005600028F0823039F0833041F406C06ABB089528
:1005700067BB089564BB089561BB0895843080F41F
:10058000813049F0813028F0823039F0833041F4F5
:1005900006C06BBB089568BB089565BB089562BB38
:1005A0000895843088F4813049F0813028F0823019
:1005B00039F0833049F406C089B3089586B30895AD
:1005C00083B3089580B3089580E00895EF92FF9279
:1005D0000F931F93CF93DF9381E064E040E00E948C
:1005E000A50181E065E040E00E94A50181E066E0B0
:1005F00040E00E94A50181E067E040E00E94A50183
:1006000083E062E040E00E94A50183E063E040E017
:100610000E94A50183E064E040E00E94A50183E020
:1006200065E040E00E94A501EE2400E0C0E2DEE4C7
:1006300001C0E02E84E0F82EFE0C81E06F2D41E039
:100640000E94A50181E06F2D40E00E94190210E098
:100650001E5F83E0612F0E948D02612F615088230D
:1006600009F04CC0802F880F880F860F883081F1E9
:10067000893080F4843021F1853038F48230D1F033
:100680008330E0F4813099F517C08630E9F0873087
:10069000E8F418C08C3021F18D3028F48A30E1F074
:1006A0008B30E0F417C08F30F9F08031F9F08E30E4
:1006B000F1F418C088E01BC087E019C089E017C0BA
:1006C00085E215C084E013C085E011C086E00FC04C
:1006D0008AE20DC081E00BC082E009C083E007C060
:1006E0008DE205C080E003C08DE301C08BE2DF91A5
:1006F000CF911F910F91FF90EF900895162F6430C6
:1007000009F0A6CF81E06F2D40E00E94A501CE0147
:100710000197F1F70E2D0F5F043008F48ACFEE2415
:1007200000E088CFDF92EF92FF920F931F93D82EB5
:1007300080E061E041E00E941902E0EDEE2EE7E08A
:10074000FE2EC7010197F1F780E062E041E00E94D0
:100750001902C7010197F1F70D2D10E0A8014071B2
:10076000507074E0559547957A95E1F780E063E025
:100770000E941902A8014072507065E05595479596
:100780006A95E1F780E064E00E941902A8014074D4
:10079000507036E0559547953A95E1F780E065E071
:1007A0000E9419024D2D441F4427441F80E066E03B
:1007B0000E941902C7010197F1F780E062E040E072
:1007C0000E941902C7010197F1F780E062E041E061
:1007D0000E941902C7010197F1F781E0D82280E059
:1007E00063E04D2D0E941902A8014270507055958A
:1007F000479580E064E00E941902A801447050709F
:10080000559547955595479580E065E00E941902FA
:100810000870107083E0159507958A95E1F780E0E0
:1008200066E0402F0E941902C7010197F1F780E0AE
:1008300062E040E00E941902C7010197F1F71F91A1
:100840000F91FF90EF90DF9008951F93CF93DF9368
:10085000EC0110E003C00E9492031F5FFE01E10F54
:10086000F11D80818823B9F7DF91CF911F91089501
:100870000F931F93DF93CF93CDB7DEB760970FB67B
:10088000F894DEBF0FBECDBF8E010F5F1F4FB801C2
:100890004AE050E00E94C208C8010E942504609608
:1008A0000FB6F894DEBF0FBECDBFCF91DF911F9181
:1008B0000F910895DF92EF92FF920F931F93D82E1E
:1008C00080E061E040E00E94190230EDE32E37E065
:1008D000F32EC7010197F1F780E062E041E00E944A
:1008E0001902C7010197F1F70D2D10E0A801407121
:1008F000507024E0559547952A95E1F780E063E034
:100900000E941902A8014072507095E055954795D4
:100910009A95E1F780E064E00E941902A801407412
:10092000507086E0559547958A95E1F780E065E03F
:100930000E9419024D2D441F4427441F80E066E0A9
:100940000E941902C7010197F1F780E062E040E0E0
:100950000E941902C7010197F1F780E062E041E0CF
:100960000E941902C7010197F1F781E0D82280E0C7
:1009700063E04D2D0E941902A801427050705595F8
:10098000479580E064E00E941902A801447050700D
:10099000559547955595479580E065E00E94190269
:1009A00008701070F3E015950795FA95E1F780E06F
:1009B00066E0402F0E941902C7010197F1F780E01D
:1009C00062E040E00E941902C7010197F1F71F9110
:1009D0000F91FF90EF90DF90089581E00E945A04FC
:1009E0000895813039F0813050F0823029F0833021
:1009F00031F404C0605C03C0605F01C0605B862F9F
:100A000080680E945A0408950F931F938A010E94E0
:100A1000F104C8010E9425041F910F91089580E000
:100A200061E041E00E94A50180E062E041E00E94B7
:100A3000A50180E49CE90197F1F780E063E041E0E3
:100A40000E94A50180E064E041E00E94A50180E0F1
:100A500065E041E00E94A50180E066E041E00E947F
:100A6000A50183E30E945A0482E30E945A0488E2AB
:100A70000E945A048CE00E945A0481E00E945A04A9
:100A8000089582E062E00E948D02089582E062E0B3
:100A900040E00E94A50108951F920F920FB60F9299
:100AA00011242F933F934F935F936F937F938F9373
:100AB0009F93AF93BF93EF93FF93E0917300F091F7
:100AC0007400309709F00995FF91EF91BF91AF91B4
:100AD0009F918F917F916F915F914F913F912F9156
:100AE0000F900FBE0F901F9018951F920F920FB688
:100AF0000F9211242F933F934F935F936F937F93A4
:100B00008F939F93AF93BF93EF93FF93E091730005
:100B1000F0917400309709F00995FF91EF91BF9122
:100B2000AF919F918F917F916F915F914F913F9185
:100B30002F910F900FBE0F901F9018951F920F923C
:100B40000FB60F9211242F933F934F935F936F93A0
:100B50007F938F939F93AF93BF93EF93FF93E09116
:100B60007500F0917600309709F00995FF91EF91AB
:100B7000BF91AF919F918F917F916F915F914F91B5
:100B80003F912F910F900FBE0F901F9018951F92BD
:100B90000F920FB60F9211242F933F934F935F93B1
:100BA0006F937F938F939F93AF93BF93EF93FF9335
:100BB000E0917500F0917600309709F00995FF916A
:100BC000EF91BF91AF919F918F917F916F915F91C5
:100BD0004F913F912F910F900FBE0F901F9018953E
:100BE0001F920F920FB60F9211242F933F934F93A2
:100BF0005F936F937F938F939F93AF93BF93EF9385
:100C0000FF93E0917700F0917800309709F0099513
:100C1000FF91EF91BF91AF919F918F917F916F91D4
:100C20005F914F913F912F910F900FBE0F901F90AA
:100C300018951F920F920FB60F9211242F933F9386
:100C40004F935F936F937F938F939F93AF93BF93D4
:100C5000EF93FF93E0917700F0917800309709F0DF
:100C60000995FF91EF91BF91AF919F918F917F91E6
:100C70006F915F914F913F912F910F900FBE0F9009
:100C80001F901895FC018481813009F43FC08130A8
:100C900020F0823009F0BDC071C0808182BF8581A3
:100CA0008230D1F0833028F4882351F0813001F56F
:100CB0001CC08430A1F0843060F08530C9F412C0CB
:100CC00083B78E7F83BF83B78D7F83BF83B78B7FCF
:100CD0000EC083B7816083BF83B7826008C083B7CB
:100CE000846005C083B7846083BF83B7816083BF9E
:100CF0008681882319F489B781607CC0813009F02E
:100D000088C082818CBF89B7826074C08FB58860CB
:100D10008FBD8FB584608FBD2681222349F48FB5A6
:100D20008E7F8FBD8FB58D7F8FBD8EB5877F0AC0BB
:100D3000213061F48FB58E7F8FBD8FB58D7F8FBDD4
:100D40008EB588608EBD8EB58F7E8EBD8EB5887F48
:100D50009581892B8EBD808191819DBD8CBD222383
:100D600019F489B7846046C0213009F052C08281ED
:100D700093819BBD8ABD89B780613CC0808184BD61
:100D800085B5806885BD85818230B9F0833028F4CF
:100D9000882351F0813019F51FC0843089F08430E8
:100DA00090F08530E1F412C085B58E7F85BD85B5A4
:100DB0008D7F85BD85B58B7F11C085B582600EC0E6
:100DC00085B5826085BD85B5846008C085B58460C1
:100DD00085BD85B5826085BD85B5816085BD86810F
:100DE000882351F485B58F7B85BD85B5877F85BD0B
:100DF00089B7806889BF0895813059F485B58F7BA4
:100E000085BD85B5886085BD828183BD89B78064D5
:100E100089BF08958130D1F0813018F08230A1F57A
:100E200026C013BE83B78E7F83BF83B78D7F83BFFA
:100E300083B78B7F83BF89B78E7F89BF89B78D7F4B
:100E400089BF109274001092730008951FBC1EBCDD
:100E50001DBC1CBC1BBC1ABC89B78B7F89BF89B762
:100E60008F7E89BF1092760010927500089515BC90
:100E700014BC13BC89B78F7789BF89B78F7B89BFB3
:100E800010927800109277000895E62FF0E0EE0FB0
:100E9000FF1FED58FF4F91838083089512BEBB9AC8
:100EA00083B7886483BF83B7806283BF83B785605D
:100EB00083BF0895982F853608F094E68FEF989FAA
:100EC000C001112464E670E00E948C086CBF089594
:100ED000EF92FF921F93CF93DF93EC017B010E946F
:100EE000FE070E941C08883089F5CE01880F892FE3
:100EF000881F990B9195182F1E70812F806A0E9470
:100F000007080E941C08883109F58C2F0E940708E9
:100F10000E941C088832D1F40E94FE070E941C081F
:100F20008031A1F4812F816A0E9407080E941C0869
:100F3000803461F40E941508F70180830E941C0828
:100F4000883521F40E94040881E001C080E0DF912F
:100F5000CF911F91FF90EF9008951F93CF93DF9350
:100F6000EC01162F0E94FE070E941C08883009F52C
:100F7000CE0180709770880F892F881F990B9195EB
:100F8000806A0E9407080E941C08883191F48C2F07
:100F90000E9407080E941C08883259F4812F0E9481
:100FA00007080E941C08883221F40E94040881E08E
:100FB00001C080E0DF91CF911F910895FC018181F4
:100FC000813059F0813028F0823059F0833079F443
:100FD0000BC082E080B9089802C010B8089A09983E
:100FE00006C010B8089802C010B8089A099A808103
:100FF000880F82B986B7846086BF089584EA86BF69
:1010000006B607FEFDCF089584E986BF089583B92B
:1010100084E886BF06B607FEFDCF089584EC86BF40
:1010200006B607FEFDCF83B1089584E886BF06B6F5
:1010300007FEFDCF83B1089581B1887F0895FC013B
:10104000599A539A549A80B5806880BD80B58E7F36
:1010500080BD908191709295990F990F907C80B589
:101060008F7B892B80BD90B582818295807F9F7C0C
:10107000892B80BD93819170990F990F990F80B53D
:10108000877F892B80BD90B58181880F8670997F7D
:10109000892B80BD248135814681578183E0220FD1
:1010A000331F441F551F8A95D1F760E072E18AE72C
:1010B00090E00E94A0082150304030BD29B9089529
:1010C0005D9BFECF8CB908955F9BFECF8CB10895D8
:1010D00020E004C05D9BFECFECB92F5FFC01E20F66
:1010E000F11DE081EE23B1F70895DC015F9BFECF97
:1010F0008CB18C9390E008C09F5F5F9BFECF8CB15A
:10110000FD01E90FF11D8083FD01E90FF11D8081D3
:10111000833291F710820895AA1BBB1B51E107C0CF
:10112000AA1FBB1FA617B70710F0A61BB70B881F77
:10113000991F5A95A9F780959095BC01CD01089506
:10114000A1E21A2EAA1BBB1BFD010DC0AA1FBB1FCB
:10115000EE1FFF1FA217B307E407F50720F0A21B3D
:10116000B30BE40BF50B661F771F881F991F1A94AA
:1011700069F760957095809590959B01AC01BD01D4
:10118000CF010895FB019F01E8944230C4F045323D
:10119000B4F44A3029F497FB1EF4909581959F4F43
:1011A000642F77270E948C08805D8A330CF0895D5C
:1011B0008193CB010097A1F716F45DE25193108261
:1011C000C9010C94E308DC01FC01672F71917723BE
:1011D000E1F7329704C07C916D9370836291AE17F2
:0A11E000BF07C8F30895F894FFCF8D
:1011EA000000117A010401010001000300008025BA
:0211FA000000F3
:00000001FF
