:100000000C942A000C943F000C943F000C943F0089
:100010000C943F000C943F000C943F000C943F0064
:100020000C943F000C943F000C943F000C943F0054
:100030000C943F000C943F000C943F000C943F0044
:100040000C943F000C943F000C943F000C943F0034
:100050000C943F0011241FBECFE5D8E0DEBFCDBF1A
:1000600011E0A0E6B0E0EAEDF3E102C005900D92E8
:10007000A836B107D9F70E9432090C94EB090C9409
:100080000000EF92FF920F931F937B018C0120E001
:1000900030E040E05FE40E94C30288238CF0C80196
:1000A000B70120E030E040E05FE40E94B9010E9427
:1000B000F3029B01AC01205030404040504806C044
:1000C000C801B7010E94F3029B01AC01B901CA014A
:1000D0001F910F91FF90EF900895A0E0B0E0E3E74B
:1000E000F0E00C948309DC012B01FA019C91923021
:1000F00008F439C1EB018881823008F433C19430AF
:1001000069F4843009F02FC111969C91119789816F
:10011000981709F428C1A0E6B0E025C1843009F49D
:1001200021C18230A9F4923009F01DC19A01AD01BC
:1001300088E0EA010990AE01E90109929E0181502F
:10014000C1F7E201898111969C918923818308C1BD
:10015000923009F407C112962D903C901397EB0151
:100160008A819B811496AD90BD90CD90DC901797BD
:10017000EC80FD800E811F819101281B390BB90194
:1001800037FF04C066277727621B730B6032710547
:100190000CF061C0121613066CF537014801062EEB
:1001A00004C096948794779467940A94D2F721E0D8
:1001B00030E040E050E004C0220F331F441F551FC1
:1001C0006A95D2F721503040404050402E213F21C7
:1001D00040235123211531054105510521F021E02E
:1001E00030E040E050E079018A01E628F72808294C
:1001F00019293CC0232BD1F1260E371E35014601AB
:10020000062E04C096948794779467940A94D2F744
:1002100021E030E040E050E004C0220F331F441FD3
:10022000551F6A95D2F721503040404050402A2156
:100230003B214C215D21211531054105510521F05E
:1002400021E030E040E050E059016A01A628B728DB
:10025000C828D9280BC0821593052CF01C01AA24AC
:10026000BB24650103C0EE24FF24870111969C91F5
:10027000D20111968C91981709F445C0992339F051
:10028000A80197012A193B094C095D0906C0A6017E
:1002900095012E193F09400B510B57FD08C01182E3
:1002A0003382228224833583468357831DC081E0B5
:1002B00081833382228288279927DC01821B930B5A
:1002C000A40BB50B84839583A683B7830DC0220F3F
:1002D000331F441F551F24833583468357838281F0
:1002E000938101979383828324813581468157814D
:1002F000DA01C9010197A109B1098F5F9F4FAF4F83
:10030000BF4328F30BC0918333822282EA0CFB1C8B
:100310000C1D1D1DE482F5820683178383E0808314
:10032000248135814681578157FF1AC0C901AA2708
:1003300097FDA095BA2F81709070A070B0705695FF
:10034000479537952795822B932BA42BB52B848328
:100350009583A683B7838281938101969383828359
:10036000DF0101C0D201CD01CDB7DEB7E2E10C94CF
:100370009F09A0E2B0E0EFEBF1E00C948F096983F4
:100380007A838B839C832D833E834F835887E9E058
:10039000EE2EF12CEC0EFD1ECE010196B7010E944F
:1003A000E4048E010F5E1F4FCE010596B8010E9436
:1003B000E4048A8991E089278A8BC701B801AE01DC
:1003C000475E5F4F0E946D000E940F04A096E6E01A
:1003D0000C94AB09A0E2B0E0E0EFF1E00C948F09DF
:1003E00069837A838B839C832D833E834F835887D5
:1003F000F9E0EF2EF12CEC0EFD1ECE010196B701B7
:100400000E94E4048E010F5E1F4FCE010596B801D5
:100410000E94E404C701B801AE01475E5F4F0E942D
:100420006D000E940F04A096E6E00C94AB09A8E1D1
:10043000B0E0EDE1F2E00C948B0969837A838B8361
:100440009C832D833E834F835887B9E0EB2EF12C9C
:10045000EC0EFD1ECE010196B7010E94E4048E0150
:100460000F5E1F4FCE010596B8010E94E404298556
:10047000223008F47EC03989323010F4B8017CC0D3
:100480008A859A8989278A87243011F0223031F4AD
:10049000231709F06EC060E670E06EC0343039F4A6
:1004A0001D861E861F86188A1C861B8604C0323055
:1004B00021F484E08987B7015FC02B853C858B8957
:1004C0009C89281B390B3C872B87ED84FE840F8584
:1004D0001889AD88BE88CF88D88CEA14FB040C0537
:1004E0001D0540F4EE0CFF1C001F111F2150304071
:1004F0003C872B8720E030E040E050E080E090E057
:10050000A0E0B0E460E070E0EA14FB040C051D0517
:1005100040F0282B392B4A2B5B2BEA18FB080C09DF
:100520001D09B695A79597958795EE0CFF1C001FA2
:10053000111F6F5F7F4F6F31710531F7DA01C9010C
:100540008F779070A070B07080349105A105B105CF
:1005500061F427FD0AC0E114F1040105110529F039
:10056000205C3F4F4F4F5F4F20782D873E874F874E
:10057000588BBE01675F7F4FCB010E940F046896C6
:10058000EAE00C94A709A8E1B0E0E9ECF2E00C94F1
:100590008F0969837A838B839C832D833E834F836A
:1005A000588789E0E82EF12CEC0EFD1ECE01019655
:1005B000B7010E94E4048E010F5E1F4FCE01059625
:1005C000B8010E94E4048985823040F08989823034
:1005D00028F0C701B8010E945C0501C08FEF689642
:1005E000E6E00C94AB09ACE0B0E0E9EFF2E00C948B
:1005F000930969837A838B839C83CE010196BE0124
:100600006B5F7F4F0E94E4048D81823061F1823004
:1006100050F1843021F48E81882351F12EC02F8136
:10062000388537FD20C06E812F3131051CF06623DF
:10063000F9F023C08EE190E0821B930B29853A8567
:100640004B855C8504C056954795379527958A95C7
:10065000D2F76623B1F050954095309521953F4FE4
:100660004F4F5F4F0EC020E030E040E050E009C047
:100670002FEF3FEF4FEF5FE704C020E030E040E0B6
:1006800050E8B901CA012C96E2E00C94AF09A8E049
:10069000B0E0EDE4F3E00C948B097B018C01611573
:1006A00071058105910519F482E0898360C083E0BA
:1006B00089838EE1C82ED12CDC82CB82ED82FE8232
:1006C0000F831887C801B7010E94C003FC0131974E
:1006D000F7FF3BC0222733272E1B3F0B5701680132
:1006E000022E04C0D694C794B794A7940A94D2F764
:1006F00040E050E060E070E081E090E0A0E0B0E039
:1007000004C0880F991FAA1FBB1F2A95D2F7019713
:10071000A109B1098E219F21A023B1230097A10532
:10072000B10521F041E050E060E070E04A295B292A
:100730006C297D294D835E836F8378878EE190E0FD
:100740008E1B9F0B9C838B8312C0309781F00E2EE3
:1007500004C0EE0CFF1C001F111F0A94D2F7ED829B
:10076000FE820F831887CE1ADF0ADC82CB821A82C0
:10077000CE0101960E940F042896EAE00C94A70986
:10078000EF92FF920F931F937B018C0180E0E8169C
:1007900080E0F80681E0080780E0180788F48FEF12
:1007A000E816F1040105110531F028F088E090E029
:1007B000A0E0B0E017C080E090E0A0E0B0E012C0A0
:1007C00080E0E81680E0F80680E0080781E018077E
:1007D00028F088E190E0A0E0B0E004C080E190E083
:1007E000A0E0B0E020E230E040E050E0281B390B10
:1007F0004A0B5B0B04C016950795F794E7948A950E
:10080000D2F7F701E859FF4F8081281B31094109D0
:100810005109C9011F910F91FF90EF900895DF9248
:10082000EF92FF920F931F93FC01E480F580068105
:100830001781D1808081823048F480E090E0A0E18F
:10084000B0E0E82AF92A0A2B1B2BA5C0843009F452
:100850009FC0823021F4EE24FF24870105C0E114FB
:10086000F1040105110519F4E0E0F0E096C06281A1
:1008700073819FEF623879070CF05BC022E83FEF8D
:10088000261B370B2A3131052CF020E030E040E008
:1008900050E02AC0B801A701022E04C076956795E2
:1008A000579547950A94D2F781E090E0A0E0B0E038
:1008B00004C0880F991FAA1FBB1F2A95D2F7019762
:1008C000A109B1098E219F21A023B1230097A10581
:1008D000B10521F081E090E0A0E0B0E09A01AB0129
:1008E000282B392B4A2B5B2BDA01C9018F779070AB
:1008F000A070B07080349105A105B10539F427FFCF
:1009000009C0205C3F4F4F4F5F4F04C0215C3F4FF9
:100910004F4F5F4FE0E0F0E02030A0E03A07A0E06A
:100920004A07A0E45A0710F0E1E0F0E079018A01FB
:1009300027C06038710564F5FB01E158FF4FD8010D
:10094000C7018F779070A070B07080349105A105B9
:10095000B10539F4E7FE0DC080E490E0A0E0B0E01E
:1009600004C08FE390E0A0E0B0E0E80EF91E0A1F9B
:100970001B1F17FF05C016950795F794E79431964E
:1009800087E016950795F794E7948A95D1F705C007
:10099000EE24FF248701EFEFF0E06E2F67956627C6
:1009A0006795902F9F77D794DD24D7948E2F8695C7
:1009B000492F462B582F5D29B701CA011F910F916E
:1009C000FF90EF90DF900895FC01DB0140815181A1
:1009D0002281622F6F7770E0221F2227221F9381CE
:1009E000892F880F822B282F30E0991F9927991F74
:1009F00011969C93119721153105A9F541155105C3
:100A00006105710511F482E037C082E89FEF13960B
:100A10009C938E9312979A01AB0167E0220F331FCC
:100A2000441F551F6A95D1F783E08C930DC0220FA8
:100A3000331F441F551F12968D919C911397019758
:100A400013969C938E931297203080E0380780E0B5
:100A5000480780E4580758F314962D933D934D931F
:100A60005C93179708952F3F310579F4411551058F
:100A70006105710519F484E08C93089564FF03C047
:100A800081E08C9312C01C9210C02F5730401396F7
:100A90003C932E93129783E08C9387E0440F551F6D
:100AA000661F771F8A95D1F7706414964D935D93F6
:100AB0006D937C93179708951F93DC01FB019C9124
:100AC000923008F447C08081823008F443C09430EB
:100AD00051F411961C91843099F58181682F70E052
:100AE000611B71093FC0843021F0923031F48230B3
:100AF000B9F18181882389F12DC011961C9111973C
:100B00008230F1F081811817D9F412962D913C9121
:100B10001397828193818217930794F028173907DE
:100B2000BCF014968D919D910D90BC91A02D2481C7
:100B3000358146815781281739074A075B0718F422
:100B4000112341F00AC082179307A407B50740F4A8
:100B5000112319F061E070E005C06FEF7FEF02C074
:100B600060E070E0CB011F91089580E487B987E8C9
:100B700086B9089597B1907E97B997B18770892B00
:100B800087B9369A349BFECF349A24B135B1C90166
:100B900008951F93162F813019F0823071F404C02C
:100BA00081E060E041E00CC081E060E040E00E9454
:100BB000730681E061E041E008C081E060E040E070
:100BC0000E94730681E061E040E00E947306612F9D
:100BD000153608F064E6862F0E940E091F910895CD
:100BE00081E063E00E94050781E060E040E00E9450
:100BF000730681E061E040E00E947306089568306A
:100C000008F070C0843008F06DC0813009F1813087
:100C100030F08230B1F1833009F064C04BC0413014
:100C200059F42AB381E090E002C0880F991F6A95B9
:100C3000E2F7282B2ABB08952AB381E090E002C096
:100C4000880F991F6A95E2F7809582238ABB0895E1
:100C5000413059F427B381E090E002C0880F991F1A
:100C60006A95E2F7282B27BB089527B381E090E02F
:100C700002C0880F991F6A95E2F78095822387BB8F
:100C80000895413059F424B381E090E002C0880F08
:100C9000991F6A95E2F7282B24BB089524B381E0BD
:100CA00090E002C0880F991F6A95E2F78095822331
:100CB00084BB0895413059F421B381E090E002C033
:100CC000880F991F6A95E2F7282B21BB089521B35D
:100CD00081E090E002C0880F991F6A95E2F7809545
:100CE000822381BB0895683008F070C0843008F01A
:100CF0006DC0813009F1813030F08230B1F1833044
:100D000009F064C04BC0413059F42BB381E090E04E
:100D100002C0880F991F6A95E2F7282B2BBB089514
:100D20002BB381E090E002C0880F991F6A95E2F72B
:100D3000809582238BBB0895413059F428B381E01C
:100D400090E002C0880F991F6A95E2F7282B28BB14
:100D5000089528B381E090E002C0880F991F6A953A
:100D6000E2F78095822388BB0895413059F425B37A
:100D700081E090E002C0880F991F6A95E2F7282B66
:100D800025BB089525B381E090E002C0880F991F2C
:100D90006A95E2F78095822385BB0895413059F426
:100DA00022B381E090E002C0880F991F6A95E2F7B4
:100DB000282B22BB089522B381E090E002C0880F67
:100DC000991F6A95E2F78095822382BB0895683067
:100DD000D0F48430C0F4813049F0813028F0823082
:100DE00039F0833081F406C089B305C086B303C0EF
:100DF00083B301C080B390E002C0959587956A9552
:100E0000E2F78170089580E00895843080F48130A5
:100E100049F0813028F0823039F0833041F406C047
:100E20006ABB089567BB089564BB089561BB0895CC
:100E3000843080F4813049F0813028F0823039F0FC
:100E4000833041F406C06BBB089568BB089565BB51
:100E5000089562BB0895843088F4813049F0813070
:100E600028F0823039F0833049F406C089B3089500
:100E700086B3089583B3089580B3089580E00895FC
:100E8000DF92EF92FF920F931F93D82E80E061E0E4
:100E900041E00E947306E0EAEE2EEFE0FE2EC7016D
:100EA0000197F1F780E062E041E00E947306C7011C
:100EB0000197F1F70D2D10E0A8014071507074E01A
:100EC000559547957A95E1F780E063E00E947306B7
:100ED000A8014072507065E0559547956A95E1F715
:100EE00080E064E00E947306A8014074507036E010
:100EF000559547953A95E1F780E065E00E947306C5
:100F00004D2D441F4427441F80E066E00E94730675
:100F1000C7010197F1F780E062E040E00E947306AC
:100F2000C7010197F1F780E062E041E00E9473069B
:100F3000C7010197F1F781E0D82280E063E04D2DF1
:100F40000E947306A801427050705595479580E045
:100F500064E00E947306A80144705070559547954F
:100F60005595479580E065E00E9473060870107003
:100F700083E0159507958A95E1F780E066E0402FBC
:100F80000E947306C7010197F1F780E062E040E03C
:100F90000E947306C7010197F1F71F910F91FF900F
:100FA000EF90DF9008951F93CF93DF93EC0110E053
:100FB00003C00E9440071F5FFE01E10FF11D808109
:100FC0008823B9F7DF91CF911F9108950F931F9355
:100FD000DF93CF93CDB7DEB760970FB6F894DEBF3F
:100FE0000FBECDBF8E010F5F1F4FB8014AE050E02A
:100FF0000E94BA09C8010E94D30760960FB6F89400
:10100000DEBF0FBECDBFCF91DF911F910F9108952D
:10101000DF92EF92FF920F931F93D82E80E061E052
:1010200040E00E94730630EAE32E3FE0F32EC70152
:101030000197F1F780E062E041E00E947306C7018A
:101040000197F1F70D2D10E0A8014071507024E0D8
:10105000559547952A95E1F780E063E00E94730675
:10106000A8014072507095E0559547959A95E1F723
:1010700080E064E00E947306A8014074507086E02E
:10108000559547958A95E1F780E065E00E947306E3
:101090004D2D441F4427441F80E066E00E947306E4
:1010A000C7010197F1F780E062E040E00E9473061B
:1010B000C7010197F1F780E062E041E00E9473060A
:1010C000C7010197F1F781E0D82280E063E04D2D60
:1010D0000E947306A801427050705595479580E0B4
:1010E00064E00E947306A8014470507055954795BE
:1010F0005595479580E065E00E9473060870107072
:10110000F3E015950795FA95E1F780E066E0402F4A
:101110000E947306C7010197F1F780E062E040E0AA
:101120000E947306C7010197F1F71F910F91FF907D
:10113000EF90DF90089581E00E94080808958130C3
:1011400039F0813050F0823029F0833031F404C01E
:10115000605C03C0605F01C0605B862F80680E9496
:10116000080808950F931F938A010E949F08C801E1
:101170000E94D3071F910F91089580E061E041E044
:101180000E94FF0580E062E041E00E94FF0588ECDC
:1011900090E020E931E0F9013197F1F70197D9F7B3
:1011A00080E063E041E00E94FF0580E064E041E010
:1011B0000E94FF0580E065E041E00E94FF0580E0BD
:1011C00066E041E00E94FF0583E30E94080882E395
:1011D0000E94080888E20E9408088CE00E94080823
:1011E00081E00E940808089582E00E94BA05A0E00C
:1011F000B0E0BC01CD012EEE32E040E050E00E94B4
:101200003D090E94470320E030ED4FEB54E40E947B
:1012100017020E944100DC01CB010895982F85360A
:1012200008F094E68FEF989FC001112464E670E007
:101230000E945C096CBF089512BE81E063E041E04A
:101240000E94FF0583B7806483BF83B7886083BF34
:1012500083B7806283BF83B7816083BF83B78460B5
:1012600083BF08950E941C090E94F00581E064E696
:101270000E94C90580E090E00895629FD001739FAD
:10128000F001829FE00DF11D649FE00DF11D929F22
:10129000F00D839FF00D749FF00D659FF00D992761
:1012A000729FB00DE11DF91F639FB00DE11DF91F85
:1012B000BD01CF011124089597FB092E07260AD0FE
:1012C00077FD04D00CD006D000201AF470956195FB
:1012D0007F4F0895F6F7909581959F4F0895AA1B2B
:1012E000BB1B51E107C0AA1FBB1FA617B70710F011
:1012F000A61BB70B881F991F5A95A9F78095909543
:10130000BC01CD0108952F923F924F925F926F9250
:101310007F928F929F92AF92BF92CF92DF92EF9285
:10132000FF920F931F93CF93DF93CDB7DEB7CA1B06
:10133000DB0B0FB6F894DEBF0FBECDBF09942A8831
:10134000398848885F846E847D848C849B84AA84D9
:10135000B984C884DF80EE80FD800C811B81AA8166
:10136000B981CE0FD11D0FB6F894DEBF0FBECDBF31
:10137000ED010895FB019F01E8944230C4F045322D
:10138000B4F44A3029F497FB1EF4909581959F4F51
:10139000642F77270E946F09805D8A330CF0895D86
:1013A0008193CB010097A1F716F45DE2519310826F
:1013B000C9010C94DB09DC01FC01672F71917723D3
:1013C000E1F7329704C07C916D9370836291AE1700
:0A13D000BF07C8F30895F894FFCF9B
:1013DA0000000000000000000001020203030303F2
:1013EA0004040404040404040505050505050505AB
:1013FA00050505050505050506060606060606068B
:10140A000606060606060606060606060606060672
:10141A00060606060606060607070707070707075A
:10142A000707070707070707070707070707070742
:10143A000707070707070707070707070707070732
:10144A000707070707070707070707070707070722
:10145A00070707070707070708080808080808080A
:10146A0008080808080808080808080808080808F2
:10147A0008080808080808080808080808080808E2
:10148A0008080808080808080808080808080808D2
:10149A0008080808080808080808080808080808C2
:1014AA0008080808080808080808080808080808B2
:1014BA0008080808080808080808080808080808A2
:1014CA000808080808080808080808080808080892
:0814DA000808080808080808CA
:00000001FF
