:100000000C942A000C94B0000C94CA000C94E200EA
:100010000C943C000C943C000C943C000C944F005D
:100020000C943C000C943C000C943C000C943C0060
:100030000C943C000C943C000C943C000C943C0050
:100040000C943C000C943C000C943C000C943C0040
:100050000C943C0011241FBECFE5D8E0DEBFCDBF1D
:1000600010E0A0E6B0E001C01D92A436B107E1F7B0
:100070000E94F0000C9478010C9400001DBC1CBC84
:1000800088E08FBD8DE08EBD89E09DE39BBD8ABD7C
:1000900089B7806189BF8FB780688FBF08951F922D
:1000A0000F920FB60F9211248F939F93809160004F
:1000B00090916300882329F59098949A892F8F5FF7
:1000C000809363008C3339F4809162008F5F80935A
:1000D000620010926300809162008C3339F4809149
:1000E00061008F5F809361001092620080916100D7
:1000F000843631F510926100109262001092630014
:100100001FC09498959A9923C1F480916200882326
:1001100069F480916100882311F4909A11C0815094
:10012000809361008BE38093620004C081508093D0
:1001300062008BE38093630003C09150909363004F
:100140009F918F910F900FBE0F901F90189585B7BC
:10015000826085BF8BB780648BBF8A98929A08951E
:100160001F920F920FB60F9211241DBC1CBC10924F
:10017000630010926200109261000F900FBE0F900A
:100180001F90189585B78C6085BF8BB780688BBF33
:100190008B9808951F920F920FB60F9211248F9390
:1001A0008EB5887F8EBD8F910F900FBE0F901F90E0
:1001B000189584B78F7B84BF8BB780628BBFBA984A
:1001C000C29A08951F920F920FB60F9211248F9327
:1001D0008DE08EBD8F910F900FBE0F901F901895E0
:1001E000EF92FF920F931F93949A81B3816381BB27
:1001F000BF9884B38F6084BB85B3807F85BB8AB38F
:100200008F638ABB8BB3807C8BBB0E943E000E94B5
:10021000A7000E94C2000E94D90020916300822F93
:100220006AE00E946C01B92F822F0E946C01A82FF6
:10023000AF7020916200822F0E946C01592F5F7075
:10024000822F0E946C01482F4F70809161000E94A4
:100250006C019F7020E2E22E20E43FE180E1F82E65
:1002600008E014E072E061E0B79B03C09098949AB4
:1002700002C09498909AEBBA85B3807F8B2B85BB94
:10028000F9013197F1F7FBBA85B3807F8A2B85BBE3
:10029000F9013197F1F70BBB85B3807F852B85BBC7
:1002A000F9013197F1F71BBB85B3807F842B85BBA8
:1002B000F9013197F1F77BBB85B3807F892B85BB33
:1002C000F9013197F1F76BBB85B3807F892B85BB33
:1002D000F9013197F1F7C8CF991B79E004C0991F54
:1002E000961708F0961B881F7A95C9F78095089590
:0402F000F894FFCFB0
:00000001FF
