:100000000C942A000C9447000C9447000C94470071
:100010000C94C41B0C94911B0C9447000C945E1B15
:100020000C9447000C942B1B0C94F81A0C94C51AD2
:100030000C9447000C9447000C9447000C94470024
:100040000C9447000C9447000C9447000C94470014
:100050000C94470011241FBECFE5D8E0DEBFCDBF12
:1000600012E0A0E6B0E0EEE5F4E402C005900D92E7
:10007000AA35B107D9F712E0AAE5B2E001C01D9296
:10008000A136B107E1F70E9472090C942D220C945D
:100090000000EF92FF920F931F937B018C0120E0F1
:1000A00030E040E05FE40E94490388238CF0C801FF
:1000B000B70120E030E040E05FE40E94C1010E940F
:1000C000A9039B01AC01205030404040504806C07D
:1000D000C801B7010E94A9039B01AC01B901CA0183
:1000E0001F910F91FF90EF900895A0E0B0E0EBE733
:1000F000F0E00C94C521DC012B01FA019C919230B7
:1001000008F439C1EB018881823008F433C194309E
:1001100069F4843009F02FC111969C91119789815F
:10012000981709F428C1A2E4B2E025C1843009F48B
:1001300021C18230A9F4923009F01DC19A01AD01AC
:1001400088E0EA010990AE01E90109929E0181501F
:10015000C1F7E201898111969C918923818308C1AD
:10016000923009F407C112962D903C901397EB0141
:100170008A819B811496AD90BD90CD90DC901797AD
:10018000EC80FD800E811F819101281B390BB90184
:1001900037FF04C066277727621B730B6032710537
:1001A0000CF061C0121613066CF537014801062EDB
:1001B00004C096948794779467940A94D2F721E0C8
:1001C00030E040E050E004C0220F331F441F551FB1
:1001D0006A95D2F721503040404050402E213F21B7
:1001E00040235123211531054105510521F021E01E
:1001F00030E040E050E079018A01E628F72808293C
:1002000019293CC0232BD1F1260E371E350146019A
:10021000062E04C096948794779467940A94D2F734
:1002200021E030E040E050E004C0220F331F441FC3
:10023000551F6A95D2F721503040404050402A2146
:100240003B214C215D21211531054105510521F04E
:1002500021E030E040E050E059016A01A628B728CB
:10026000C828D9280BC0821593052CF01C01AA249C
:10027000BB24650103C0EE24FF24870111969C91E5
:10028000D20111968C91981709F445C0992339F041
:10029000A80197012A193B094C095D0906C0A6016E
:1002A00095012E193F09400B510B57FD08C01182D3
:1002B0003382228224833583468357831DC081E0A5
:1002C00081833382228288279927DC01821B930B4A
:1002D000A40BB50B84839583A683B7830DC0220F2F
:1002E000331F441F551F24833583468357838281E0
:1002F000938101979383828324813581468157813D
:10030000DA01C9010197A109B1098F5F9F4FAF4F72
:10031000BF4328F30BC0918333822282EA0CFB1C7B
:100320000C1D1D1DE482F5820683178383E0808304
:10033000248135814681578157FF1AC0C901AA27F8
:1003400097FDA095BA2F81709070A070B0705695EF
:10035000479537952795822B932BA42BB52B848318
:100360009583A683B7838281938101969383828349
:10037000DF0101C0D201CD01CDB7DEB7E2E10C94BF
:10038000E121A0E2B0E0E7ECF1E00C94D121698337
:100390007A838B839C832D833E834F835887E9E048
:1003A000EE2EF12CEC0EFD1ECE010196B7010E943F
:1003B000D2048E010F5E1F4FCE010596B8010E9438
:1003C000D2048A8991E089278A8BC701B801AE01DE
:1003D000475E5F4F0E9475000E94FD03A096E6E015
:1003E0000C94ED21A0E2B0E0E8EFF1E00C94D12113
:1003F00069837A838B839C832D833E834F835887C5
:10040000F9E0EF2EF12CEC0EFD1ECE010196B701A6
:100410000E94D2048E010F5E1F4FCE010596B801D7
:100420000E94D204C701B801AE01475E5F4F0E942F
:1004300075000E94FD03A096E6E00C94ED21A0E279
:10044000B0E0E5E2F2E00C94C52169837A838B8306
:100450009C832D833E834F835887CE010196BE0136
:10046000675F7F4F0E94D204CE010596BE016F5E8A
:100470007F4F0E94D2049985923088F0898982301A
:10048000C8F0943019F4823051F404C0843029F457
:10049000923081F482E492E0C6C0923049F420E0C8
:1004A0009A858A89981321E02A87CE010996BBC0D4
:1004B000823049F420E09A858A89981321E02A8BBA
:1004C000CE014196B0C02D843E844F8458886D88FB
:1004D0007E888F88988CEE24FF248701AA24BB2471
:1004E000650140E050E060E070E0E0E0F0E0C10174
:1004F00081709070892BE9F0E60CF71C081D191D1E
:100500009A01AB012A0D3B1D4C1D5D1D80E090E062
:10051000A0E0B0E0E614F7040805190520F481E036
:1005200090E0A0E0B0E0BA01A901480F591F6A1F8E
:100530007B1FAA0CBB1CCC1CDD1C97FE08C081E0F5
:1005400090E0A0E0B0E0A82AB92ACA2ADB2A3196B6
:10055000E032F10549F0660C771C881C991C569412
:10056000479437942794C3CFFA85EA892B893C892D
:100570008B859C85280F391F2E5F3F4F17C0CA01FE
:1005800081709070892B61F016950795F794E79428
:1005900080E090E0A0E0B0E8E82AF92A0A2B1B2BC3
:1005A00076956795579547952F5F3F4F77FDE7CF36
:1005B0000CC0440F551F661F771F17FD4160EE0CDE
:1005C000FF1C001F111F21503040403090E05907A0
:1005D00090E0690790E4790760F32B8F3C8FDB0193
:1005E000CA018F779070A070B07080349105A1051A
:1005F000B10561F447FD0AC0E114F10401051105DC
:1006000029F0405C5F4F6F4F7F4F40781A8EFE1786
:1006100011F081E08A8F4D8F5E8F6F8F78A383E01A
:10062000898FCE0149960E94FD03A096E2E10C94C9
:10063000E121A8E1B0E0EFE1F3E00C94D12169837E
:100640007A838B839C832D833E834F83588789E0F5
:10065000E82EF12CEC0EFD1ECE010196B7010E9492
:10066000D2048E010F5E1F4FCE010596B8010E9485
:10067000D2048985823040F08989823028F0C70110
:10068000B8010E944A0501C08FEF6896E6E00C941D
:10069000ED21A8E1B0E0EFE4F3E00C94D12169830F
:1006A0007A838B839C832D833E834F83588789E095
:1006B000E82EF12CEC0EFD1ECE010196B7010E9432
:1006C000D2048E010F5E1F4FCE010596B8010E9425
:1006D000D2048985823040F08989823028F0C701B0
:1006E000B8010E944A0501C08FEF6896E6E00C94BD
:1006F000ED21A8E1B0E0EFE7F3E00C94D1216983AC
:100700007A838B839C832D833E834F83588789E034
:10071000E82EF12CEC0EFD1ECE010196B7010E94D1
:10072000D2048E010F5E1F4FCE010596B8010E94C4
:10073000D2048985823040F08989823028F0C7014F
:10074000B8010E944A0501C081E06896E6E00C9479
:10075000ED21ACE0B0E0EFEAF3E00C94D521698341
:100760007A838B839C83CE010196BE016B5F7F4FA2
:100770000E94D2048D81823061F1823050F1843048
:1007800021F48E81882351F12EC02F81388537FDC9
:1007900020C06E812F3131051CF06623F9F023C093
:1007A0008EE190E0821B930B29853A854B855C8511
:1007B00004C056954795379527958A95D2F76623B5
:1007C000B1F050954095309521953F4F4F4F5F4F79
:1007D0000EC020E030E040E050E009C02FEF3FEFD6
:1007E0004FEF5FE704C020E030E040E050E8B9019F
:1007F000CA012C96E2E00C94F121DF92EF92FF9275
:100800000F931F93FC01E480F58006811781D1804E
:100810008081823048F480E090E0A0E1B0E0E82AF6
:10082000F92A0A2B1B2BA5C0843009F49FC0823003
:1008300021F4EE24FF24870105C0E114F104010531
:10084000110519F4E0E0F0E096C0628173819FEF3A
:10085000623879070CF05BC022E83FEF261B370BAC
:100860002A3131052CF020E030E040E050E02AC091
:10087000B801A701022E04C0769567955795479554
:100880000A94D2F781E090E0A0E0B0E004C0880FC5
:10089000991FAA1FBB1F2A95D2F70197A109B10979
:1008A0008E219F21A023B1230097A105B10521F03E
:1008B00081E090E0A0E0B0E09A01AB01282B392B59
:1008C0004A2B5B2BDA01C9018F779070A070B07052
:1008D00080349105A105B10539F427FF09C0205CDA
:1008E0003F4F4F4F5F4F04C0215C3F4F4F4F5F4F13
:1008F000E0E0F0E02030A0E03A07A0E04A07A0E402
:100900005A0710F0E1E0F0E079018A0127C0603871
:10091000710564F5FB01E158FF4FD801C7018F77DE
:100920009070A070B07080349105A105B10539F4C4
:10093000E7FE0DC080E490E0A0E0B0E004C08FE3EB
:1009400090E0A0E0B0E0E80EF91E0A1F1B1F17FFA1
:1009500005C016950795F794E794319687E01695AC
:100960000795F794E7948A95D1F705C0EE24FF2404
:100970008701EFEFF0E06E2F679566276795902F60
:100980009F77D794DD24D7948E2F8695492F462BB9
:10099000582F5D29B701CA011F910F91FF90EF9069
:1009A000DF900895FC01DB01408151812281622F9B
:1009B0006F7770E0221F2227221F9381892F880FD3
:1009C000822B282F30E0991F9927991F11969C930D
:1009D000119721153105A9F54115510561057105DD
:1009E00011F482E037C082E89FEF13969C938E93B8
:1009F00012979A01AB0167E0220F331F441F551F66
:100A00006A95D1F783E08C930DC0220F331F441FEA
:100A1000551F12968D919C911397019713969C9355
:100A20008E931297203080E0380780E0480780E4FA
:100A3000580758F314962D933D934D935C93179755
:100A400008952F3F310579F4411551056105710570
:100A500019F484E08C93089564FF03C081E08C93C3
:100A600012C01C9210C02F57304013963C932E9307
:100A7000129783E08C9387E0440F551F661F771F02
:100A80008A95D1F7706414964D935D936D937C9322
:100A9000179708951F93DC01FB019C91923008F495
:100AA00047C08081823008F443C0943051F41196DD
:100AB0001C91843099F58181682F70E0611B710968
:100AC0003FC0843021F0923031F48230B9F181811D
:100AD000882389F12DC011961C9111978230F1F075
:100AE00081811817D9F412962D913C911397828128
:100AF00093818217930794F028173907BCF0149656
:100B00008D919D910D90BC91A02D248135814681C0
:100B10005781281739074A075B0718F4112341F05A
:100B20000AC082179307A407B50740F4112319F0F0
:100B300061E070E005C06FEF7FEF02C060E070E041
:100B4000CB011F910895DF93CF93CDB7DEB783E03C
:100B500063E041E00E942E0683E063E040E00E94F3
:100B60001907CF91DF910895DF93CF93CDB7DEB70B
:100B700083E063E041E00E941907CF91DF9108957F
:100B8000DF93CF93CDB7DEB783E063E040E00E9410
:100B90001907CF91DF910895DF93CF93CDB7DEB7DB
:100BA00081E060E041E00E942E0681E061E041E0EA
:100BB0000E942E0681E060E040E00E94190781E07B
:100BC00061E040E00E941907CF91DF910895DF9323
:100BD000CF9300D000D0CDB7DEB789836A838A81F6
:100BE000853610F084E68A838A810E94BC1E898142
:100BF000282F30E03C832B838B819C8181309105B1
:100C000031F02B813C812230310561F016C081E04A
:100C100060E041E00E94190781E061E040E00E944D
:100C2000190715C081E060E040E00E94190781E0EB
:100C300061E041E00E9419070AC081E060E040E005
:100C40000E94190781E061E040E00E9419070F90BF
:100C50000F900F900F90CF91DF910895DF93CF9376
:100C600000D000D00F92CDB7DEB789836A834B8363
:100C70008A81883008F0D5C08981843008F0D1C0DD
:100C80008981282F30E03D832C838C819D818130A8
:100C9000910509F443C02C813D81223031052CF4AB
:100CA0008C819D81009771F0BCC02C813D812230E8
:100CB000310509F45FC08C819D818330910509F471
:100CC00085C0AFC08B818130A1F4AAE3B0E0EAE334
:100CD000F0E08081482F8A81282F30E081E090E089
:100CE000022E02C0880F991F0A94E2F7842B8C937E
:100CF00098C0AAE3B0E0EAE3F0E08081482F8A815F
:100D0000282F30E081E090E0022E02C0880F991F6A
:100D10000A94E2F7809584238C9383C08B81813081
:100D2000A1F4A7E3B0E0E7E3F0E08081482F8A81F7
:100D3000282F30E081E090E0022E02C0880F991F3A
:100D40000A94E2F7842B8C936CC0A7E3B0E0E7E34E
:100D5000F0E08081482F8A81282F30E081E090E008
:100D6000022E02C0880F991F0A94E2F7809584230F
:100D70008C9357C08B818130A1F4A4E3B0E0E4E30D
:100D8000F0E08081482F8A81282F30E081E090E0D8
:100D9000022E02C0880F991F0A94E2F7842B8C93CD
:100DA00040C0A4E3B0E0E4E3F0E08081482F8A8112
:100DB000282F30E081E090E0022E02C0880F991FBA
:100DC0000A94E2F7809584238C932BC08B81813029
:100DD000A1F4A1E3B0E0E1E3F0E08081482F8A8153
:100DE000282F30E081E090E0022E02C0880F991F8A
:100DF0000A94E2F7842B8C9314C0A1E3B0E0E1E302
:100E0000F0E08081482F8A81282F30E081E090E057
:100E1000022E02C0880F991F0A94E2F7809584235E
:100E20008C930F900F900F900F900F90CF91DF91B8
:100E30000895DF93CF9300D000D00F92CDB7DEB7E7
:100E400089836A834B838A81883008F0D5C0898181
:100E5000843008F0D1C08981282F30E03D832C8375
:100E60008C819D818130910509F443C02C813D81A5
:100E7000223031052CF48C819D81009771F0BCC02B
:100E80002C813D812230310509F45FC08C819D8128
:100E90008330910509F485C0AFC08B818823A9F404
:100EA000ABE3B0E0EBE3F0E08081482F8A81282FAC
:100EB00030E081E090E0022E02C0880F991F0A9472
:100EC000E2F7809584238C9397C0ABE3B0E0EBE32B
:100ED000F0E08081482F8A81282F30E081E090E087
:100EE000022E02C0880F991F0A94E2F7842B8C937C
:100EF00083C08B818823A9F4A8E3B0E0E8E3F0E0A5
:100F00008081482F8A81282F30E081E090E0022EF6
:100F100002C0880F991F0A94E2F7809584238C936E
:100F20006BC0A8E3B0E0E8E3F0E08081482F8A815D
:100F3000282F30E081E090E0022E02C0880F991F38
:100F40000A94E2F7842B8C9357C08B818823A9F4F1
:100F5000A5E3B0E0E5E3F0E08081482F8A81282F07
:100F600030E081E090E0022E02C0880F991F0A94C1
:100F7000E2F7809584238C933FC0A5E3B0E0E5E3DE
:100F8000F0E08081482F8A81282F30E081E090E0D6
:100F9000022E02C0880F991F0A94E2F7842B8C93CB
:100FA0002BC08B818823A9F4A2E3B0E0E2E3F0E058
:100FB0008081482F8A81282F30E081E090E0022E46
:100FC00002C0880F991F0A94E2F7809584238C93BE
:100FD00013C0A2E3B0E0E2E3F0E08081482F8A8111
:100FE000282F30E081E090E0022E02C0880F991F88
:100FF0000A94E2F7842B8C930F900F900F900F9030
:101000000F90CF91DF910895DF93CF9300D000D060
:101010000F92CDB7DEB78A836B8319828B818830BC
:1010200008F084C08A81843008F080C08A81282F2B
:1010300030E03D832C834C815D814130510579F155
:101040008C819D818230910534F42C813D81211564
:10105000310569F06BC04C815D8142305105B9F1B9
:101060008C819D818330910509F449C05FC0E9E31B
:10107000F0E08081282F30E08B81882F90E0A9015B
:1010800002C0559547958A95E2F7CA018170907024
:10109000882319F081E0898349C0198247C0E6E3BB
:1010A000F0E08081282F30E08B81882F90E0A9012B
:1010B00002C0559547958A95E2F7CA0181709070F4
:1010C000882319F081E0898331C019822FC0E3E3BE
:1010D000F0E08081282F30E08B81882F90E0A901FB
:1010E00002C0559547958A95E2F7CA0181709070C4
:1010F000882319F081E0898319C0198217C0E0E3C1
:10110000F0E08081282F30E08B81882F90E0A901CA
:1011100002C0559547958A95E2F7CA018170907093
:10112000882319F081E0898301C0198289810F9099
:101130000F900F900F900F90CF91DF910895DF9354
:10114000CF9300D000D0CDB7DEB789836A83898181
:10115000843090F58981282F30E03C832B838B816C
:101160009C8181309105D1F02B813C812230310569
:101170002CF48B819C81009761F01EC02B813C81F7
:101180002230310581F08B819C818330910581F083
:1011900013C0EAE3F0E08A8180830EC0E7E3F0E069
:1011A0008A81808309C0E4E3F0E08A81808304C0FF
:1011B000E1E3F0E08A8180830F900F900F900F9011
:1011C000CF91DF910895DF93CF9300D000D0CDB7BA
:1011D000DEB789836A838981843090F58981282FDD
:1011E00030E03C832B838B819C8181309105D1F051
:1011F0002B813C81223031052CF48B819C8100971E
:1012000061F01EC02B813C812230310581F08B8141
:101210009C818330910581F013C0EBE3F0E08A817B
:1012200080830EC0E8E3F0E08A81808309C0E5E3B3
:10123000F0E08A81808304C0E2E3F0E08A81808369
:101240000F900F900F900F90CF91DF910895DF9343
:10125000CF9300D000D00F92CDB7DEB78A8319822A
:101260008A81843010F01D8234C08A81282F30E0BA
:101270003C832B838B819C8181309105D1F02B8124
:101280003C81223031052CF48B819C81009761F0E8
:101290001EC02B813C812230310581F08B819C81E5
:1012A0008330910581F013C0E9E3F0E08081898308
:1012B0000EC0E6E3F0E08081898309C0E3E3F0E05B
:1012C0008081898304C0E0E3F0E080818983998193
:1012D0009D838D810F900F900F900F900F90CF9165
:1012E000DF9108950F931F93DF93CF93CDB7DEB7B0
:1012F000C55AD0400FB6F894DEBF0FBECDBFEFE5A4
:10130000F0E0808180688083CE0187569F4FCF5563
:10131000DF4F99838883C15AD0408AE492E0CD554B
:10132000DF4F99838883C35AD04098E0CB55DF4F75
:101330009883C55AD040CD55DF4FE881F981C35A13
:10134000D0400080CD55DF4F88819981C35AD0406D
:101350000196CD55DF4F99838883C35AD040CF552E
:10136000DF4FE881F981C15AD0400082CF55DF4F6D
:1013700088819981C15AD0400196CF55DF4F99831A
:101380008883C15AD040CB55DF4F9881C55AD04091
:101390009150CB55DF4F9883C55AD040CB55DF4F86
:1013A000E881C55AD040EE2331F6CE0187569F4FD3
:1013B0000E9465200E949A150E94BB1A80E690E068
:1013C0000E94141A81E060E00E943D1A81E790E0DB
:1013D0000E94141AFE01E757FF4F80E090E0AAE751
:1013E000B3E480839183A283B3838E010B571F4F95
:1013F000FE01E757FF4F608171818281938120E078
:1014000030E04AEF54E40E941F02DC01CB01F801F6
:1014100080839183A283B383FE01EB57FF4F6081EA
:1014200071818281938120E030E040E85FE30E9497
:101430007903882344F4FE01ED57FF4F81E090E0EB
:101440009183808364C0FE01EB57FF4F60817181FF
:101450008281938120E03FEF4FE757E40E94190318
:1014600018160CF043C0FE01E757FF4F60817181F1
:101470008281938120E030E040E251E40E941F022B
:10148000DC01CB018E010D571F4FBC01CD010E9425
:101490004900DC01CB01F801918380831FC0FE016C
:1014A000EF57FF4F88EC90E091838083FE01EF5768
:1014B000FF4F808191810197F1F7FE01EF57FF4FB8
:1014C00091838083DE01AD57BF4FFE01ED57FF4F83
:1014D00080819181019711969C938E93FE01ED5727
:1014E000FF4F808191810097D1F627C08E010D5763
:1014F0001F4FFE01EB57FF4F608171818281938105
:101500000E944900DC01CB01F80191838083DE0158
:10151000A158BF4FFE01ED57FF4F808191818D9300
:101520009C93FE01E158FF4F808191810197F1F773
:10153000FE01E158FF4F918380830E94BB1A82E82D
:1015400090E00E94141A81E060E00E943D1A83E955
:1015500090E00E94141AFE01E558FF4F80E090E0F1
:10156000AAE7B3E480839183A283B3838E010958F1
:101570001F4FFE01E558FF4F608171818281938189
:1015800020E030E04AEF54E40E941F02DC01CB016E
:10159000F80180839183A283B383FE01E958FF4F52
:1015A000608171818281938120E030E040E85FE3D7
:1015B0000E947903882344F4FE01EB58FF4F81E039
:1015C00090E09183808364C0FE01E958FF4F608101
:1015D00071818281938120E03FEF4FE757E40E94C1
:1015E000190318160CF043C0FE01E558FF4F608147
:1015F00071818281938120E030E040E251E40E94D9
:101600001F02DC01CB018E010B581F4FBC01CD0125
:101610000E944900DC01CB01F801918380831FC047
:10162000FE01ED58FF4F88EC90E091838083FE012E
:10163000ED58FF4F808191810197F1F7FE01ED5840
:10164000FF4F91838083DE01AB58BF4FFE01EB5803
:10165000FF4F80819181019711969C938E93FE019B
:10166000EB58FF4F808191810097D1F627C08E0102
:101670000B581F4FFE01E958FF4F60817181828135
:1016800093810E944900DC01CB01F80191838083A2
:10169000DE01AF58BF4FFE01EB58FF4F80819181B3
:1016A0008D939C93FE01EF58FF4F808191810197AC
:1016B000F1F7FE01EF58FF4F918380830E94BB1A20
:1016C00084EA90E00E94141A81E060E00E943D1AD2
:1016D00085EB90E00E94141AFE01E359FF4F80E071
:1016E00090E0AAE7B3E480839183A283B3838E0161
:1016F00007591F4FFE01E359FF4F608171818281BD
:10170000938120E030E04AEF54E40E941F02DC01A4
:10171000CB01F80180839183A283B383FE01E75953
:10172000FF4F608171818281938120E030E040E849
:101730005FE30E947903882344F4FE01E959FF4FD7
:1017400081E090E09183808364C0FE01E759FF4F00
:10175000608171818281938120E03FEF4FE757E400
:101760000E94190318160CF043C0FE01E359FF4F05
:10177000608171818281938120E030E040E251E418
:101780000E941F02DC01CB018E0109591F4FBC01D1
:10179000CD010E944900DC01CB01F80191838083D7
:1017A0001FC0FE01EB59FF4F88EC90E091838083CE
:1017B000FE01EB59FF4F808191810197F1F7FE0106
:1017C000EB59FF4F91838083DE01A959BF4FFE0182
:1017D000E959FF4F80819181019711969C938E93D7
:1017E000FE01E959FF4F808191810097D1F627C012
:1017F0008E0109591F4FFE01E759FF4F608171812A
:10180000828193810E944900DC01CB01F801918320
:101810008083DE01AD59BF4FFE01E959FF4F808142
:1018200091818D939C93FE01ED59FF4F80819181B1
:101830000197F1F7FE01ED59FF4F918380830E94DC
:10184000BB1A8CEC0E94FF20FE01EF56FF4F108266
:1018500006C00E946D11FE01EF56FF4F8083FE010E
:10186000EF56FF4F80818823A1F30E94BB1A85ECBD
:1018700090E00E94141A81E060E00E943D1A83ED1E
:1018800090E00E94141A0E940F14FE01ED56FF4FC3
:101890008083FE01ED56FF4F80818B3209F036C305
:1018A000FE01EE56FF4F10828DED0E94FF208FEF5C
:1018B0000E94FF200E94BB1A83EE90E00E94141A3F
:1018C00081E060E00E943D1ACE018C569F4F0E943D
:1018D000BB12CE018C569F4F0E949713FE01E15A16
:1018E000FF4F80E090E0A8ECB2E480839183A28374
:1018F000B3838E01055A1F4FFE01E15AFF4F6081ED
:1019000071818281938120E030E04AEF54E40E94AB
:101910001F02DC01CB01F80180839183A283B38392
:10192000FE01E55AFF4F608171818281938120E041
:1019300030E040E85FE30E947903882344F4FE012D
:10194000E75AFF4F81E090E09183808364C0FE01FD
:10195000E55AFF4F608171818281938120E03FEFE2
:101960004FE757E40E94190318160CF043C0FE011C
:10197000E15AFF4F608171818281938120E030E0E4
:1019800040E251E40E941F02DC01CB018E01075AA4
:101990001F4FBC01CD010E944900DC01CB01F801C1
:1019A000918380831FC0FE01E95AFF4F88EC90E0CD
:1019B00091838083FE01E95AFF4F808191810197D5
:1019C000F1F7FE01E95AFF4F91838083DE01A75AA8
:1019D000BF4FFE01E75AFF4F808191810197119619
:1019E0009C938E93FE01E75AFF4F8081918100976F
:1019F000D1F627C08E01075A1F4FFE01E55AFF4F4F
:101A000060817181828193810E944900DC01CB0158
:101A1000F80191838083DE01AB5ABF4FFE01E75A84
:101A2000FF4F808191818D939C93FE01EB5AFF4F74
:101A3000808191810197F1F7FE01EB5AFF4F91836D
:101A400080830E941321FE01E157FF4F8083FE0136
:101A5000E157FF4F80818A3A09F0A6C1FE01EE5698
:101A6000FF4F10820E94BB1A83EF90E00E94141A6D
:101A70000E94BB1A0E94BB1A84E091E00E94141AD3
:101A800081E060E00E943D1A85E191E00E94141A15
:101A900085E00E94BC130E94BB1A86E291E00E947E
:101AA000141A81E060E00E943D1A87E391E00E94F1
:101AB000141AFE01EF5AFF4F80E090E0AAE7B3E46A
:101AC00080839183A283B3838E01035B1F4FFE014A
:101AD000EF5AFF4F608171818281938120E030E075
:101AE0004AEF54E40E941F02DC01CB01F80180831D
:101AF0009183A283B383FE01E35BFF4F6081718119
:101B00008281938120E030E040E85FE30E94790326
:101B1000882344F4FE01E55BFF4F81E090E0918370
:101B2000808364C0FE01E35BFF4F6081718182812D
:101B3000938120E03FEF4FE757E40E941903181606
:101B40000CF043C0FE01EF5AFF4F6081718182812A
:101B5000938120E030E040E251E40E941F02DC016A
:101B6000CB018E01055B1F4FBC01CD010E944900D6
:101B7000DC01CB01F801918380831FC0FE01E75B8C
:101B8000FF4F88EC90E091838083FE01E75BFF4F7D
:101B9000808191810197F1F7FE01E75BFF4F91830F
:101BA0008083DE01A55BBF4FFE01E55BFF4F8081B7
:101BB0009181019711969C938E93FE01E55BFF4FF7
:101BC000808191810097D1F627C08E01055B1F4F60
:101BD000FE01E35BFF4F60817181828193810E94EE
:101BE0004900DC01CB01F80191838083DE01A95B10
:101BF000BF4FFE01E55BFF4F808191818D939C93E8
:101C0000FE01E95BFF4F808191810197F1F7FE01B1
:101C1000E95BFF4F91838083FE01E357FF4F108202
:101C20000E941321FE01E257FF4F8083FE01E2571D
:101C3000FF4F8081823009F4A5C0FE01E257FF4FBB
:101C40008081882369F7FE01E357FF4F808181304F
:101C500039F30E94BB1A88E491E00E94141A81E0D3
:101C600060E00E943D1A89E591E00E94141AFE018D
:101C7000E357FF4F81E08083FE01ED5BFF4F80E083
:101C800090E0AAEFB3E480839183A283B3838E01B3
:101C9000015C1F4FFE01ED5BFF4F6081718182810E
:101CA000938120E030E04AEF54E40E941F02DC01FF
:101CB000CB01F80180839183A283B383FE01FF9659
:101CC000608171818281938120E030E040E85FE3B0
:101CD0000E94790388232CF481E090E09EAF8DAFC1
:101CE00046C0FE01FF96608171818281938120E070
:101CF0003FEF4FE757E40E941903181664F5FE0101
:101D0000ED5BFF4F608171818281938120E030E043
:101D100040E251E40E941F02DC01CB01BC01CD0175
:101D20000E944900DC01CB019EAF8DAF0FC088EC53
:101D300090E09CAF8BAF8BAD9CAD0197F1F79CAF62
:101D40008BAF8DAD9EAD01979EAF8DAF8DAD9EAD2E
:101D5000009769F765CFFE01FF96608171818281EE
:101D600093810E944900DC01CB019EAF8DAF8DAD08
:101D70009EAD9AAF89AF89AD9AAD0197F1F79AAF51
:101D800089AF4ECF0E94BB1A84E091E00E94141AE2
:101D900081E060E00E943D1A8AE691E00E94141AF8
:101DA00085E00E94BC1361CDFE01E157FF4F8081A9
:101DB0008B3B09F08EC00E94BB1A8BE791E00E941A
:101DC000141A80E090E0AAEFB3E48DAB9EABAFAB0A
:101DD000B8AF6DA97EA98FA998AD20E030E04AEF99
:101DE00054E40E941F02DC01CB0189AB9AABABAB80
:101DF000BCAB69A97AA98BA99CA920E030E040E896
:101E00005FE30E94790388232CF481E090E098AB93
:101E10008FA73FC069A97AA98BA99CA920E03FEFB1
:101E20004FE757E40E94190318164CF56DA97EA9D7
:101E30008FA998AD20E030E040E251E40E941F02FB
:101E4000DC01CB01BC01CD010E944900DC01CB01CA
:101E500098AB8FA70FC088EC90E09EA78DA78DA5AB
:101E60009EA50197F1F79EA78DA78FA598A9019729
:101E700098AB8FA78FA598A9009769F714C069A997
:101E80007AA98BA99CA90E944900DC01CB0198ABDF
:101E90008FA78FA598A99CA78BA78BA59CA5019719
:101EA000F1F79CA78BA7DE01AE56BF4FFE01EE56A1
:101EB000FF4F80818F5F8C93FE01EE56FF4F808134
:101EC000833021F488E60E94FF2003C089E60E9447
:101ED000FF20FE01EE56FF4F8081833009F0EACCEF
:101EE0000E94BB1A8AE891E00E94141A81E060E027
:101EF0000E943D1A8BE991E00E94141A85E00E942D
:101F0000BC13FE01EE56FF4F1082AFCCFE01ED5622
:101F1000FF4F80818D3209F0A8CCFE01EE56FF4FB5
:101F200010828DED0E94FF208EEE0E94FF200E9405
:101F3000BB1A8AEA91E00E94141A81E060E00E94D4
:101F40003D1A88EB91E00E94141ACE018C569F4FE7
:101F50000E94BB12CE018C569F4F0E9497130E9485
:101F600013218A3A09F00EC10E94BB1A83EF90E058
:101F70000E94141A80E090E0AAE7B3E48FA398A728
:101F8000A9A7BAA76FA178A589A59AA520E030E0F6
:101F90004AEF54E40E941F02DC01CB018BA39CA3F7
:101FA000ADA3BEA36BA17CA18DA19EA120E030E0DA
:101FB00040E85FE30E94790388232CF481E090E0FD
:101FC0009AA389A33FC06BA17CA18DA19EA120E013
:101FD0003FEF4FE757E40E94190318164CF56FA125
:101FE00078A589A59AA520E030E040E251E40E945E
:101FF0001F02DC01CB01BC01CD010E944900DC01C4
:10200000CB019AA389A30FC088EC90E098A38F8F8F
:102010008F8D98A10197F1F798A38F8F89A19AA12D
:1020200001979AA389A389A19AA1009769F714C07F
:102030006BA17CA18DA19EA10E944900DC01CB0176
:102040009AA389A389A19AA19E8F8D8F8D8D9E8D34
:102050000197F1F79E8F8D8FFE01E057FF4F1082A1
:1020600006C00E946D11FE01E057FF4F8083FE0104
:10207000E057FF4F80818823A1F30E94BB1A81ECB7
:1020800091E00E94141A81E060E00E943D1A82ED06
:1020900091E00E94141A80E090E0AAE7B3E4898FEF
:1020A0009A8FAB8FBC8F698D7A8D8B8D9C8D20E044
:1020B00030E04AEF54E40E941F02DC01CB018D8B1B
:1020C0009E8BAF8BB88F6D897E898F89988D20E02C
:1020D00030E040E85FE30E94790388232CF481E03C
:1020E00090E09C8B8B8B3FC06D897E898F89988D0A
:1020F00020E03FEF4FE757E40E94190318164CF514
:10210000698D7A8D8B8D9C8D20E030E040E251E42A
:102110000E941F02DC01CB01BC01CD010E944900DD
:10212000DC01CB019C8B8B8B0FC088EC90E09A8BF1
:10213000898B89899A890197F1F79A8B898B8B8989
:102140009C8901979C8B8B8B8B899C89009769F765
:1021500014C06D897E898F89988D0E944900DC01A9
:10216000CB019C8B8B8B8B899C89988B8F878F85E0
:1021700098890197F1F7988B8F87FE01EE56FF4FF4
:10218000108273CB0E94BB1A8BE791E00E94141A55
:1021900080E090E0AAEFB3E48B879C87AD87BE8791
:1021A0006B857C858D859E8520E030E04AEF54E488
:1021B0000E941F02DC01CB018F839887A987BA8711
:1021C0006F81788589859A8520E030E040E85FE37B
:1021D0000E94790388232CF481E090E09E838D8314
:1021E0003FC06F81788589859A8520E03FEF4FE772
:1021F00057E40E94190318164CF56B857C858D8574
:102200009E8520E030E040E251E40E941F02DC01A4
:10221000CB01BC01CD010E944900DC01CB019E83B2
:102220008D830FC088EC90E09C838B838B819C8195
:102230000197F1F79C838B838D819E8101979E830B
:102240008D838D819E81009769F714C06F81788599
:1022500089859A850E944900DC01CB019E838D838C
:102260008D819E819A83898389819A810197F1F773
:102270009A838983DE01AE56BF4FFE01EE56FF4FB3
:1022800080818F5F8C93FE01EE56FF4F80818330FB
:1022900021F488E60E94FF2003C089E60E94FF2007
:1022A000FE01EE56FF4F8081833009F040CE0E9440
:1022B000BB1A8AE891E00E94141A81E060E00E9453
:1022C0003D1A8BE991E00E94141A85E00E94BC132C
:1022D000FE01EE56FF4F1082C8CADF93CF93CDB7F1
:1022E000DEB7A8970FB6F894DEBF0FBECDBF1D8E28
:1022F0000E94BB1A83EE91E00E94141A81E060E014
:102300000E943D1ACE014E960E94BB120E94BB1A3B
:1023100084EF91E00E94141A81E060E00E943D1A6F
:1023200086E092E00E94141A81E06BE00E943D1A60
:10233000CE0183960E94BB12CE014E969E012D5D6A
:102340003F4FB9010E9462138D8F8D8D882309F450
:1023500087C0CE014E960E9497130E94BB1A82E15D
:1023600092E00E94141A81E060E00E943D1A82E22D
:1023700092E00E94141A80E090E0AAE7B3E4898F0B
:102380009A8FAB8FBC8F698D7A8D8B8D9C8D20E061
:1023900030E04AEF54E40E941F02DC01CB018D8B38
:1023A0009E8BAF8BB88F6D897E898F89988D20E049
:1023B00030E040E85FE30E94790388232CF481E059
:1023C00090E09C8B8B8B3FC06D897E898F89988D27
:1023D00020E03FEF4FE757E40E94190318164CF531
:1023E000698D7A8D8B8D9C8D20E030E040E251E448
:1023F0000E941F02DC01CB01BC01CD010E944900FB
:10240000DC01CB019C8B8B8B0FC088EC90E09A8B0E
:10241000898B89899A890197F1F79A8B898B8B89A6
:102420009C8901979C8B8B8B8B899C89009769F782
:1024300014C06D897E898F89988D0E944900DC01C6
:10244000CB019C8B8B8B8B899C89988B8F878F85FD
:1024500098890197F1F7988B8F8781E088A781C0D1
:102460000E94BB1A82E192E00E94141A81E060E0AF
:102470000E943D1A81E392E00E94141A80E090E0ED
:10248000AAE7B3E48B879C87AD87BE876B857C8585
:102490008D859E8520E030E04AEF54E40E941F02C3
:1024A000DC01CB018F839887A987BA876F817885F4
:1024B00089859A8520E030E040E85FE30E94790357
:1024C00088232CF481E090E09E838D833FC06F8150
:1024D000788589859A8520E03FEF4FE757E40E9491
:1024E000190318164CF56B857C858D859E8520E03B
:1024F00030E040E251E40E941F02DC01CB01BC014C
:10250000CD010E944900DC01CB019E838D830FC069
:1025100088EC90E09C838B838B819C810197F1F701
:102520009C838B838D819E8101979E838D838D817A
:102530009E81009769F714C06F81788589859A8597
:102540000E944900DC01CB019E838D838D819E8199
:102550009A83898389819A810197F1F79A83898384
:1025600018A688A5A8960FB6F894DEBF0FBECDBFFB
:10257000CF91DF910895DF93CF93CDB7DEB7629708
:102580000FB6F894DEBF0FBECDBF9A8B898B188A29
:1025900088C00E940F148F8780E090E0AAE7B3E420
:1025A0008B879C87AD87BE876B857C858D859E8557
:1025B00020E030E04AEF54E40E941F02DC01CB012E
:1025C0008F839887A987BA876F81788589859A854F
:1025D00020E030E040E85FE30E94790388232CF498
:1025E00081E090E09E838D833FC06F8178858985EF
:1025F0009A8520E03FEF4FE757E40E941903181631
:102600004CF56B857C858D859E8520E030E040E231
:1026100051E40E941F02DC01CB01BC01CD010E94EC
:102620004900DC01CB019E838D830FC088EC90E0D4
:102630009C838B838B819C810197F1F79C838B8397
:102640008D819E8101979E838D838D819E810097D0
:1026500069F714C06F81788589859A850E94490041
:10266000DC01CB019E838D838D819E819A8389833A
:1026700089819A810197F1F79A8389838F858A30BE
:1026800080F48889282F30E089899A89FC01E20F3B
:10269000F31F8F8580838AE20E94251888898F5FC7
:1026A000888B8889853008F474CF0E940F14833298
:1026B000E1F762960FB6F894DEBF0FBECDBFCF91A3
:1026C000DF910895DF93CF9300D000D000D0CDB735
:1026D000DEB79B838A837D836C83198219C08981CD
:1026E000282F30E08A819B81FC01E20FF31F40819B
:1026F0008981282F30E08C819D81FC01E20FF31F3E
:102700008081481711F01E8208C089818F5F8983FC
:102710008981853020F381E08E838E8126960FB6E5
:10272000F894DEBF0FBECDBFCF91DF910895DF9348
:10273000CF9300D00F92CDB7DEB79B838A831982E7
:1027400012C00E9413218131E1F78981282F30E0E6
:102750008A819B81FC01E20FF31F80810E94FF2090
:1027600089818F5F89838981853058F30F900F901D
:102770000F90CF91DF910895DF93CF93CDB7DEB760
:102780002D970FB6F894DEBF0FBECDBF8887CE0160
:1027900001969A878987E2E5F2E0FC87EB87F7E00C
:1027A000FD87EB85FC8500808B859C8501969C8749
:1027B0008B87E985FA85008289859A8501969A87B3
:1027C00089879D8591509D87ED85EE2351F783E0A4
:1027D00094E161E00E94511CCE0101960E94F71B1A
:1027E00090915A0288859817D8F310925A0281E086
:1027F0000E94291C2D960FB6F894DEBF0FBECDBFE8
:10280000CF91DF910895DF93CF93CDB7DEB780915D
:102810005A028F5F80935A02CF91DF910895DF9320
:10282000CF93CDB7DEB760970FB6F894DEBF0FBE7B
:10283000CDBF81E060E040E00E942E0681E061E0D3
:1028400040E00E942E0681E062E040E00E942E06F9
:1028500081E063E040E00E942E0681E064E040E019
:102860000E942E0681E065E040E00E942E0681E095
:1028700066E040E00E942E0681E067E040E00E94B2
:102880002E061F86ABC081E06F8541E00E942E06B8
:1028900081E06F8540E00E941907188A22C088896C
:1028A000982F9C5F81E0692F0E9404088823B1F46F
:1028B0008F85882F90E0880F991F880F991F982F78
:1028C0008889890F8F5F0E94F31460960FB6F89481
:1028D000DEBF0FBECDBFCF91DF91089588898F5F96
:1028E000888B88898430D8F281E06F8540E00E942F
:1028F0002E0680E090E0A0E2B1E48B879C87AD8754
:10290000BE876B857C858D859E8520E030E04AEF13
:1029100054E40E941F02DC01CB018F839887A987B2
:10292000BA876F81788589859A8520E030E040E814
:102930005FE30E94790388232CF481E090E09E837A
:102940008D833FC06F81788589859A8520E03FEF30
:102950004FE757E40E94190318164CF56B857C85E8
:102960008D859E8520E030E040E251E40E941F0208
:10297000DC01CB01BC01CD010E944900DC01CB018F
:102980009E838D830FC088EC90E09C838B838B812A
:102990009C810197F1F79C838B838D819E810197A8
:1029A0009E838D838D819E81009769F714C06F810E
:1029B000788589859A850E944900DC01CB019E8338
:1029C0008D838D819E819A83898389819A810197E4
:1029D000F1F79A8389838F858F5F8F878F85843006
:1029E00008F451CF4ECFDF93CF9300D000D0CDB7B6
:1029F000DEB78A8319828A81282F30E03C832B83BB
:102A00008B819C818830910509F470C02B813C81B9
:102A1000293031055CF58B819C818430910509F466
:102A200059C02B813C81253031059CF48B819C81E0
:102A30008230910509F448C02B813C812330310557
:102A40000CF045C08B819C818130910509F439C01F
:102A500067C02B813C812630310509F441C08B8150
:102A60009C81873091050CF03EC037C02B813C81A2
:102A70002C30310509F446C08B819C818D30910545
:102A80005CF42B813C812A303105B1F18B819C8132
:102A90008B309105A4F52DC02B813C812E30310562
:102AA000B9F18B819C818E3091057CF12B813C8129
:102AB0002F30310579F18B819C818031910569F14D
:102AC0002FC087E089832EC088E089832BC089E0EE
:102AD000898328C085E2898325C084E0898322C058
:102AE00085E089831FC086E089831CC08AE28983D0
:102AF00019C081E0898316C082E0898313C083E016
:102B0000898310C08FE289830DC08DE289830AC05A
:102B1000198208C08BE2898305C083E2898302C0E1
:102B20008A81898389810F900F900F900F90CF91A8
:102B3000DF910895DF93CF93CDB7DEB72E970FB611
:102B4000F894DEBF0FBECDBF82E060E041E00E949E
:102B50002E0682E061E041E00E942E0680E090E0D7
:102B6000A0EAB1E48B879C87AD87BE876B857C85A7
:102B70008D859E8520E030E04AEF54E40E941F02DC
:102B8000DC01CB018F839887A987BA876F8178850D
:102B900089859A8520E030E040E85FE30E94790370
:102BA00088232CF481E090E09E838D833FC06F8169
:102BB000788589859A8520E03FEF4FE757E40E94AA
:102BC000190318164CF56B857C858D859E8520E054
:102BD00030E040E251E40E941F02DC01CB01BC0165
:102BE000CD010E944900DC01CB019E838D830FC083
:102BF00088EC90E09C838B838B819C810197F1F71B
:102C00009C838B838D819E8101979E838D838D8193
:102C10009E81009769F714C06F81788589859A85B0
:102C20000E944900DC01CB019E838D838D819E81B2
:102C30009A83898389819A810197F1F79A8389839D
:102C400080E06FEF0E949F0888E30E9436168CE0B8
:102C50000E94361681E00E9436162E960FB6F89422
:102C6000DEBF0FBECDBFCF91DF910895DF93CF932D
:102C7000CDB7DEB7E9970FB6F894DEBF0FBECDBF74
:102C800089AF82E060E040E00E94190780E090E0B8
:102C9000A0E8BFE38DAB9EABAFABB8AF6DA97EA98B
:102CA0008FA998AD20E030E04AEF54E40E941F0263
:102CB000DC01CB0189AB9AABABABBCAB69A97AA900
:102CC0008BA99CA920E030E040E85FE30E947903F3
:102CD00088232CF481E090E098AB8FA73FC069A9CE
:102CE0007AA98BA99CA920E03FEF4FE757E40E9407
:102CF000190318164CF56DA97EA98FA998AD20E08F
:102D000030E040E251E40E941F02DC01CB01BC0133
:102D1000CD010E944900DC01CB0198AB8FA70FC009
:102D200088EC90E09EA78DA78DA59EA50197F1F751
:102D30009EA78DA78FA598A9019798AB8FA78FA560
:102D400098A9009769F714C069A97AA98BA99CA9C9
:102D50000E944900DC01CB0198AB8FA78FA598A9F1
:102D60009CA78BA78BA59CA50197F1F79CA78BA788
:102D700082E061E041E00E94190780E090E0A0E875
:102D8000BFE38FA398A7A9A7BAA76FA178A589A524
:102D90009AA520E030E04AEF54E40E941F02DC01D3
:102DA000CB018BA39CA3ADA3BEA36BA17CA18DA1E2
:102DB0009EA120E030E040E85FE30E947903882391
:102DC0002CF481E090E09AA389A33FC06BA17CA181
:102DD0008DA19EA120E03FEF4FE757E40E94190329
:102DE00018164CF56FA178A589A59AA520E030E0CA
:102DF00040E251E40E941F02DC01CB01BC01CD0185
:102E00000E944900DC01CB019AA389A30FC088EC82
:102E100090E098A38F8F8F8D98A10197F1F798A3D9
:102E20008F8F89A19AA101979AA389A389A19AA1B9
:102E3000009769F714C06BA17CA18DA19EA10E948F
:102E40004900DC01CB019AA389A389A19AA19E8F95
:102E50008D8F8D8D9E8D0197F1F79E8F8D8F80E0E8
:102E600069AD0E94E30880E090E0A0E8BFE3898FAD
:102E70009A8FAB8FBC8F698D7A8D8B8D9C8D20E066
:102E800030E04AEF54E40E941F02DC01CB018D8B3D
:102E90009E8BAF8BB88F6D897E898F89988D20E04E
:102EA00030E040E85FE30E94790388232CF481E05E
:102EB00090E09C8B8B8B3FC06D897E898F89988D2C
:102EC00020E03FEF4FE757E40E94190318164CF536
:102ED000698D7A8D8B8D9C8D20E030E040E251E44D
:102EE0000E941F02DC01CB01BC01CD010E94490000
:102EF000DC01CB019C8B8B8B0FC088EC90E09A8B14
:102F0000898B89899A890197F1F79A8B898B8B89AB
:102F10009C8901979C8B8B8B8B899C89009769F787
:102F200014C06D897E898F89988D0E944900DC01CB
:102F3000CB019C8B8B8B8B899C89988B8F878F8502
:102F400098890197F1F7988B8F8782E061E040E0E4
:102F50000E94190780E090E0A0E8BFE38B879C8780
:102F6000AD87BE876B857C858D859E8520E030E0B2
:102F70004AEF54E40E941F02DC01CB018F83988743
:102F8000A987BA876F81788589859A8520E030E0A6
:102F900040E85FE30E94790388232CF481E090E00D
:102FA0009E838D833FC06F81788589859A8520E0D7
:102FB0003FEF4FE757E40E94190318164CF56B8555
:102FC0007C858D859E8520E030E040E251E40E94C2
:102FD0001F02DC01CB01BC01CD010E944900DC01D4
:102FE000CB019E838D830FC088EC90E09C838B8304
:102FF0008B819C810197F1F79C838B838D819E81CE
:1030000001979E838D838D819E81009769F714C0FF
:103010006F81788589859A850E944900DC01CB0102
:103020009E838D838D819E819A83898389819A81F4
:103030000197F1F79A838983E9960FB6F894DEBF7A
:103040000FBECDBFCF91DF910895DF93CF93CDB762
:10305000DEB7E9970FB6F894DEBF0FBECDBF89AFDC
:1030600082E060E041E00E94190780E090E0A0E883
:10307000BFE38DAB9EABAFABB8AF6DA97EA98FA9F7
:1030800098AD20E030E04AEF54E40E941F02DC01DA
:10309000CB0189AB9AABABABBCAB69A97AA98BA9C5
:1030A0009CA920E030E040E85FE30E947903882398
:1030B0002CF481E090E098AB8FA73FC069A97AA972
:1030C0008BA99CA920E03FEF4FE757E40E9419032A
:1030D00018164CF56DA97EA98FA998AD20E030E0B7
:1030E00040E251E40E941F02DC01CB01BC01CD0192
:1030F0000E944900DC01CB0198AB8FA70FC088EC80
:1031000090E09EA78DA78DA59EA50197F1F79EA79C
:103110008DA78FA598A9019798AB8FA78FA598A980
:10312000009769F714C069A97AA98BA99CA90E9484
:103130004900DC01CB0198AB8FA78FA598A99CA76C
:103140008BA78BA59CA50197F1F79CA78BA782E085
:1031500061E041E00E94190780E090E0A0E8BFE351
:103160008FA398A7A9A7BAA76FA178A589A59AA5A3
:1031700020E030E04AEF54E40E941F02DC01CB0162
:103180008BA39CA3ADA3BEA36BA17CA18DA19EA18B
:1031900020E030E040E85FE30E94790388232CF4CC
:1031A00081E090E09AA389A33FC06BA17CA18DA18F
:1031B0009EA120E03FEF4FE757E40E941903181645
:1031C0004CF56FA178A589A59AA520E030E040E2F2
:1031D00051E40E941F02DC01CB01BC01CD010E9421
:1031E0004900DC01CB019AA389A30FC088EC90E0D1
:1031F00098A38F8F8F8D98A10197F1F798A38F8F48
:1032000089A19AA101979AA389A389A19AA100975C
:1032100069F714C06BA17CA18DA19EA10E944900F9
:10322000DC01CB019AA389A389A19AA19E8F8D8FDE
:103230008D8D9E8D0197F1F79E8F8D8F80E069AD0A
:103240000E94E30880E090E0A0E8BFE3898F9A8FB6
:10325000AB8FBC8F698D7A8D8B8D9C8D20E030E09B
:103260004AEF54E40E941F02DC01CB018D8B9E8B40
:10327000AF8BB88F6D897E898F89988D20E030E083
:1032800040E85FE30E94790388232CF481E090E01A
:103290009C8B8B8B3FC06D897E898F89988D20E0B8
:1032A0003FEF4FE757E40E94190318164CF5698D5C
:1032B0007A8D8B8D9C8D20E030E040E251E40E94BD
:1032C0001F02DC01CB01BC01CD010E944900DC01E1
:1032D000CB019C8B8B8B0FC088EC90E09A8B898BF9
:1032E00089899A890197F1F79A8B898B8B899C89B7
:1032F00001979C8B8B8B8B899C89009769F714C0F5
:103300006D897E898F89988D0E944900DC01CB01EF
:103310009C8B8B8B8B899C89988B8F878F859889C9
:103320000197F1F7988B8F8782E061E040E00E947F
:10333000190780E090E0A0E8BFE38B879C87AD870A
:10334000BE876B857C858D859E8520E030E04AEFC9
:1033500054E40E941F02DC01CB018F839887A98768
:10336000BA876F81788589859A8520E030E040E8CA
:103370005FE30E94790388232CF481E090E09E8330
:103380008D833FC06F81788589859A8520E03FEFE6
:103390004FE757E40E94190318164CF56B857C859E
:1033A0008D859E8520E030E040E251E40E941F02BE
:1033B000DC01CB01BC01CD010E944900DC01CB0145
:1033C0009E838D830FC088EC90E09C838B838B81E0
:1033D0009C810197F1F79C838B838D819E8101975E
:1033E0009E838D838D819E81009769F714C06F81C4
:1033F000788589859A850E944900DC01CB019E83EE
:103400008D838D819E819A83898389819A81019799
:10341000F1F79A838983E9960FB6F894DEBF0FBE61
:10342000CDBFCF91DF910895DF93CF9300D00F925E
:10343000CDB7DEB79B838A8319820EC08981282F7E
:1034400030E08A819B81FC01E20FF31F80810E94A2
:10345000251889818F5F89838981282F30E08A81AF
:103460009B81FC01E20FF31F8081882339F70F90C5
:103470000F900F90CF91DF910895DF93CF9300D0FD
:1034800000D00F92CDB7DEB78A836B838A81282F55
:1034900030E03D832C838C819D8181309105C1F08A
:1034A0002C813D81223031052CF48C819D81009747
:1034B00061F019C02C813D812230310569F08C8189
:1034C0009D818330910561F00EC08B8189830BC093
:1034D0008B81805C898307C08B81805F898303C077
:1034E0008B81805B8983898180680E9436160F906A
:1034F0000F900F900F900F90CF91DF910895DF9371
:10350000CF9300D000D0CDB7DEB789836A835C83C8
:103510004B8389816A810E943D1A8B819C810E9424
:10352000141A0F900F900F900F90CF91DF91089584
:10353000DF93CF93CDB7DEB762970FB6F894DEBFB7
:103540000FBECDBF9A8B898B89899A899E012F5F87
:103550003F4FB9014AE050E00E94FC21CE010196A4
:103560000E94141A62960FB6F894DEBF0FBECDBF4C
:10357000CF91DF910895DF93CF93CDB7DEB781E090
:103580000E943616CF91DF9108951F920F920FB6C9
:103590000F9211242F933F934F935F936F937F93D9
:1035A0008F939F93AF93BF93EF93FF93DF93CF934B
:1035B000CDB7DEB780915B0290915C02009729F055
:1035C000E0915B02F0915C020995CF91DF91FF9150
:1035D000EF91BF91AF919F918F917F916F915F918B
:1035E0004F913F912F910F900FBE0F901F90189504
:1035F0001F920F920FB60F9211242F933F934F9368
:103600005F936F937F938F939F93AF93BF93EF934A
:10361000FF93DF93CF93CDB7DEB780915B0290919C
:103620005C02009729F0E0915B02F0915C02099541
:10363000CF91DF91FF91EF91BF91AF919F918F91CA
:103640007F916F915F914F913F912F910F900FBE9E
:103650000F901F9018951F920F920FB60F92112482
:103660002F933F934F935F936F937F938F939F938A
:10367000AF93BF93EF93FF93DF93CF93CDB7DEB7B5
:1036800080915D0290915E02009729F0E0915D02C9
:10369000F0915E020995CF91DF91FF91EF91BF917B
:1036A000AF919F918F917F916F915F914F913F91DA
:1036B0002F910F900FBE0F901F9018951F920F9291
:1036C0000FB60F9211242F933F934F935F936F93F5
:1036D0007F938F939F93AF93BF93EF93FF93DF936A
:1036E000CF93CDB7DEB780915D0290915E020097D7
:1036F00029F0E0915D02F0915E020995CF91DF9192
:10370000FF91EF91BF91AF919F918F917F916F91B9
:103710005F914F913F912F910F900FBE0F901F908F
:1037200018951F920F920FB60F9211242F933F936B
:103730004F935F936F937F938F939F93AF93BF93B9
:10374000EF93FF93DF93CF93CDB7DEB780915F0206
:1037500090916002009729F0E0915F02F091600281
:103760000995CF91DF91FF91EF91BF91AF919F911B
:103770008F917F916F915F914F913F912F910F901A
:103780000FBE0F901F9018951F920F920FB60F92B9
:1037900011242F933F934F935F936F937F938F9356
:1037A0009F93AF93BF93EF93FF93DF93CF93CDB7E7
:1037B000DEB780915F0290916002009729F0E0915E
:1037C0005F02F09160020995CF91DF91FF91EF9137
:1037D000BF91AF919F918F917F916F915F914F9129
:1037E0003F912F910F900FBE0F901F901895DF9370
:1037F000CF9300D000D0CDB7DEB79A838983E9811B
:10380000FA818481282F30E03C832B838B819C813B
:103810008130910571F02B813C812230310571F0AE
:103820008B819C81009771F489819A810E946C1C24
:1038300009C089819A810E94271D04C089819A81CB
:103840000E94C61D0F900F900F900F90CF91DF91A7
:103850000895DF93CF9300D00F92CDB7DEB7898361
:103860008981282F30E03B832A838A819B818130A4
:10387000910561F02A813B812230310551F08A8126
:103880009B81009741F40E94001D05C00E94A31D6A
:1038900002C00E94781E0F900F900F90CF91DF9181
:1038A0000895DF93CF9300D00F92CDB7DEB79A8300
:1038B00089836B838B81882F90E029813A81880FDF
:1038C000991FFC01E55AFD4F318320830F900F9023
:1038D0000F90CF91DF910895DF93CF9300D000D068
:1038E000CDB7DEB79A838983A2E5B0E0E981FA819A
:1038F000808191818C93E981FA818581282F30E044
:103900003C832B838B819C8182309105A9F12B8193
:103910003C812330310554F48B819C810097B1F0B8
:103920002B813C812130310509F147C08B819C817D
:103930008430910591F12B813C812430310514F1C3
:103940008B819C818530910571F137C0E3E5F0E012
:1039500080818E7F8083E3E5F0E080818D7F8083AE
:10396000E3E5F0E080818B7F808327C0E3E5F0E032
:1039700080818160808321C0E3E5F0E08081826006
:1039800080831BC0E3E5F0E0808181608083E3E514
:10399000F0E080818260808310C0E3E5F0E0808108
:1039A000846080830AC0E3E5F0E0808184608083E6
:1039B000E3E5F0E0808181608083E981FA8186819E
:1039C000882331F4E9E5F0E080818160808311C0D3
:1039D000E981FA818681813061F4ACE5B0E0E9816A
:1039E000FA81828193818C93E9E5F0E080818260A5
:1039F00080830F900F900F900F90CF91DF910895DB
:103A0000DF93CF93CDB7DEB7E3E5F0E01082E3E5D7
:103A1000F0E080818E7F8083E3E5F0E080818D7F20
:103A20008083E3E5F0E080818B7F8083E9E5F0E04F
:103A300080818E7F8083E9E5F0E080818D7F8083C7
:103A400010925C0210925B02CF91DF910895DF9398
:103A5000CF9300D0CDB7DEB79A838983EFE4F0E04F
:103A6000808188608083EFE4F0E0808184608083DF
:103A7000E981FA8186818823A9F4EFE4F0E080816E
:103A80008E7F8083EFE4F0E080818D7F8083EEE4A1
:103A9000F0E08081877F8083EEE4F0E080818F7E9C
:103AA000808319C0E981FA8186818130A1F4EFE435
:103AB000F0E080818E7F8083EFE4F0E080818D7F75
:103AC0008083EEE4F0E0808188608083EEE4F0E0C3
:103AD00080818F7E8083AEE4B0E0EEE4F0E0808110
:103AE000982F987FE981FA818581892B8C93ACE4AA
:103AF000B0E0E981FA818081918111969C938E9347
:103B0000E981FA818681882331F4E9E5F0E080815A
:103B10008460808313C0E981FA818681813071F4E9
:103B2000AAE4B0E0E981FA818281938111969C93A5
:103B30008E93E9E5F0E08081806180830F900F90A3
:103B4000CF91DF910895DF93CF93CDB7DEB7EFE448
:103B5000F0E01082EEE4F0E01082ECE4F0E011829C
:103B60001082EAE4F0E011821082E9E5F0E0808161
:103B70008B7F8083E9E5F0E080818F7E80831092E7
:103B80005E0210925D02CF91DF910895DF93CF9393
:103B900000D000D0CDB7DEB79A838983A4E4B0E02B
:103BA000E981FA81808191818C93E5E4F0E0808164
:103BB00080688083E981FA818581282F30E03C8309
:103BC0002B838B819C8182309105A9F12B813C81D3
:103BD0002330310554F48B819C810097B1F02B8107
:103BE0003C812130310509F14CC08B819C818430AE
:103BF000910569F12B813C812430310514F18B81D1
:103C00009C818530910571F13CC0E5E4F0E0808154
:103C10008E7F8083E5E4F0E080818D7F8083E5E422
:103C2000F0E080818B7F80832CC0E5E4F0E0808130
:103C30008160808326C0E5E4F0E08081826080833B
:103C400020C0E5E4F0E08081846080831AC0E5E470
:103C5000F0E0808182608083E5E4F0E08081846030
:103C600080830FC0E5E4F0E0808184608083E5E438
:103C7000F0E0808182608083E5E4F0E08081816013
:103C80008083E981FA818681882381F4E5E4F0E08C
:103C900080818F7B8083E5E4F0E08081877F808373
:103CA000E9E5F0E08081806880831BC0E981FA81CA
:103CB00086818130B1F4E5E4F0E080818F7B808300
:103CC000E5E4F0E0808188608083A3E4B0E0E981EE
:103CD000FA81828193818C93E9E5F0E080818064B0
:103CE00080830F900F900F900F90CF91DF910895E8
:103CF000DF93CF93CDB7DEB7E5E4F0E01082E4E4E4
:103D0000F0E01082E3E4F0E01082E9E5F0E0808189
:103D10008F778083E9E5F0E080818F7B808310924C
:103D2000600210925F02CF91DF910895DF93CF93ED
:103D3000CDB7DEB7E2E5F0E01082A7E3B0E0E7E35D
:103D4000F0E0808188608C93A3E5B0E0E3E5F0E0EB
:103D5000808188648C93A3E5B0E0E3E5F0E08081A6
:103D600080628C93A3E5B0E0E3E5F0E080818560BC
:103D70008C93CF91DF910895DF93CF930F92CDB7BE
:103D8000DEB789838981853610F084E68983ECE586
:103D9000F0E08981482F50E0CA019C01220F331FB7
:103DA000C9019695982F882797958795821B930B25
:103DB000840F951F24E630E0B9010E948F21CB01CA
:103DC00080830F90CF91DF910895DF93CF9300D040
:103DD00000D0CDB7DEB79A8389836B830E94FA1F28
:103DE0000E945620883011F01C8228C089819A8157
:103DF00080709770880F892F881F990B9195806A22
:103E00000E9416200E945620883111F01C8216C094
:103E100089810E9416200E945620883211F01C824F
:103E20000DC08B810E9416200E945620883211F00E
:103E30001C8204C00E940B2081E08C838C810F9037
:103E40000F900F900F90CF91DF910895DF93CF9354
:103E500000D000D00F92CDB7DEB79A8389837C83E0
:103E60006B830E94FA1F0E945620883011F01D8239
:103E700044C089819A8180709770880F892F881F2C
:103E8000990B9195806A0E9416200E9456208831D5
:103E900011F01D8232C089810E9416200E94562096
:103EA000883211F01D8229C00E94FA1F0E945620FC
:103EB000803111F01D8221C089819A8180709770B4
:103EC000880F892F881F990B9195816A0E9416206F
:103ED0000E945620803411F01D820FC00E944220A3
:103EE000EB81FC8180830E945620883511F01D8271
:103EF00004C00E940B2081E08D838D810F900F9074
:103F00000F900F900F90CF91DF910895DF93CF9393
:103F100000D000D0CDB7DEB79A838983E981FA81DA
:103F20008181282F30E03C832B838B819C818130E1
:103F3000910521F12B813C81223031052CF48B81BC
:103F40009C81009761F043C02B813C812230310578
:103F500019F18B819C818330910561F138C0E0E2D9
:103F6000F0E082E08083E1E2F0E080818E7F808378
:103F7000E1E2F0E080818D7F808329C0E0E2F0E023
:103F80001082E1E2F0E0808181608083E1E2F0E094
:103F900080818D7F80831BC0E0E2F0E01082E1E24F
:103FA000F0E080818E7F8083E1E2F0E080818260BA
:103FB00080830DC0E0E2F0E01082E1E2F0E0808179
:103FC00081608083E1E2F0E0808182608083A2E210
:103FD000B0E0E981FA818081880F8C93E6E5F0E01A
:103FE0008081846080830F900F900F900F90CF910D
:103FF000DF910895DF93CF93CDB7DEB7E6E5F0E02C
:1040000084EA8083E6E5F0E0808180788823D1F33C
:10401000CF91DF910895DF93CF93CDB7DEB7E6E57B
:10402000F0E084E98083CF91DF910895DF93CF930F
:104030000F92CDB7DEB78983E3E2F0E08981808318
:10404000E6E5F0E084E88083E6E5F0E080818078D2
:104050008823D1F30F90CF91DF910895DF93CF9311
:10406000CDB7DEB7E6E5F0E084EC8083E6E5F0E08E
:10407000808180788823D1F3E3E2F0E08081CF91E2
:10408000DF910895DF93CF93CDB7DEB7E6E5F0E09B
:1040900084E88083E6E5F0E0808180788823D1F3AE
:1040A000E3E2F0E08081CF91DF910895DF93CF9339
:1040B0000F92CDB7DEB7E1E2F0E08081887F89839F
:1040C00089810F90CF91DF910895DF93CF9300D036
:1040D00000D0CDB7DEB79C838B831A821982EBE2C6
:1040E000F0E0808182608083EAE2F0E08081886095
:1040F0008083EAE2F0E0808180618083E0E4F0E0A8
:10410000808180688083E0E4F0E080818E7F80831E
:10411000A0E4B0E0EB81FC81808181708170982FF8
:104120009295990F990F907C8C918F7B892B8C9312
:10413000A0E4B0E0E0E4F0E08081282F2F7CEB8168
:10414000FC818281882F90E082959295907F9827BC
:10415000807F9827822B8C93A0E4B0E0EB81FC81D8
:10416000838181708170982F990F990F990F8C918D
:10417000877F892B8C93A0E4B0E0E0E4F0E08081BD
:10418000282F297FEB81FC818181882F90E0880F87
:10419000991F8670822B8C93EB81FC8184819581A1
:1041A000A681B781880F991FAA1FBB1F880F991F6F
:1041B000AA1FBB1F880F991FAA1FBB1F9C01AD011F
:1041C00080E092E1AAE7B0E0BC01CD010E94A3210A
:1041D000DA01C90101979A838983E0E4F0E08981DB
:1041E0009A81892F99278083E9E2F0E08981808391
:1041F0000F900F900F900F90CF91DF910895DF9364
:10420000CF930F92CDB7DEB78983EBE2F0E08081E8
:1042100080728823D1F3ECE2F0E0898180830F90F3
:10422000CF91DF910895DF93CF93CDB7DEB7EBE267
:10423000F0E0808180788823D1F3ECE2F0E08081A7
:10424000CF91DF910895DF93CF9300D00F92CDB738
:10425000DEB79B838A8319820EC08981282F30E0C4
:104260008A819B81FC01E20FF31F80810E94FF2065
:1042700089818F5F89838981282F30E08A819B81A2
:10428000FC01E20FF31F8081882339F70F900F9014
:104290000F90CF91DF9108950F931F93DF93CF93EA
:1042A00000D00F92CDB7DEB79B838A8319828981B4
:1042B000282F30E08A819B818C01020F131F0E94FE
:1042C0001321F80180830FC089818F5F89838981E1
:1042D000282F30E08A819B818C01020F131F0E94DE
:1042E0001321F80180838981282F30E08A819B8106
:1042F000FC01E20FF31F8081833231F78981282F7F
:1043000030E08A819B81FC01E20FF31F10820F9045
:104310000F900F90CF91DF911F910F910895AA1BDD
:10432000BB1B51E107C0AA1FBB1FA617B70710F0A0
:10433000A61BB70B881F991F5A95A9F780959095D2
:10434000BC01CD010895A1E21A2EAA1BBB1BFD01E1
:104350000DC0AA1FBB1FEE1FFF1FA217B307E40764
:10436000F50720F0A21BB30BE40BF50B661F771FBC
:10437000881F991F1A9469F760957095809590959C
:104380009B01AC01BD01CF0108952F923F924F9246
:104390005F926F927F928F929F92AF92BF92CF92D5
:1043A000DF92EF92FF920F931F93CF93DF93CDB7DE
:1043B000DEB7CA1BDB0B0FB6F894DEBF0FBECDBF56
:1043C00009942A88398848885F846E847D848C8427
:1043D0009B84AA84B984C884DF80EE80FD800C8130
:1043E0001B81AA81B981CE0FD11D0FB6F894DEBF13
:1043F0000FBECDBFED010895FB019F01E89442304F
:10440000C4F04532B4F44A3029F497FB1EF4909579
:1044100081959F4F642F77270E948F21805D8A337B
:104420000CF0895D8193CB010097A1F716F45DE252
:1044300051931082C9010C941D22DC01FC01672FED
:1044400071917723E1F7329704C07C916D9370836B
:0E4450006291AE17BF07C8F30895F894FFCF2E
:10445E00202046696E616C2050726F6A656374200D
:10446E00004564676573204469706C6F6D61203917
:10447E00300020202020204D6164652042792020CC
:10448E0020200020596F7573736566204B68616C30
:10449E0065642000486561727466656C742074688A
:1044AE00616E6B7300746F204D6F68616D6564543F
:1044BE006172656B002B203A204F70656E20446F41
:1044CE006F72002D203A204368616E67652050613F
:1044DE00737300706C7A20656E74657220706173F0
:1044EE00733A00436F727265637420506173737711
:1044FE006F72640020202020446F6F722069732039
:10450E002020202000202020556E6C6F636B696E7A
:10451E00672020202000776169742066722063680E
:10452E0065636B696E67002070656F706C652074D3
:10453E006F20656E746572002050656F706C65201B
:10454E00456E746572696E6700202020506C65613F
:10455E0073652077616974202000202020206C6F05
:10456E00636B696E6720202020200057726F6E6784
:10457E002050617373776F726400202053797374C7
:10458E00656D204C6F636B65642000576169742004
:10459E00666F722031206D696E00706C7A20656EC8
:1045AE00746572206F6C640070617373203A2920F9
:1045BE000050617373776F7264204368616E676534
:1045CE00640020205375636365737366756C6C7934
:1045DE00202000506C7A20456E74657220506173F5
:1045EE0073203A00506C7A2072652D656E74657278
:1045FE00207468653A0073616D6520706173733A5B
:10460E00200054686520322050617373776F726496
:10461E007300417265204D617463686564203A29A8
:10462E0000417265206E6F74206D617463682D5F3A
:10463E002D00000000000000000000030000802597
:0A464E0000000000117A01040100D1
:00000001FF
